{
  "abi": [
    {
      "inputs": [],
      "stateMutability": "nonpayable",
      "type": "constructor"
    },
    {
      "inputs": [],
      "name": "BuyTickets",
      "outputs": [],
      "stateMutability": "payable",
      "type": "function"
    },
    {
      "inputs": [],
      "name": "CurrentWinningReward",
      "outputs": [
        {
          "internalType": "uint256",
          "name": "",
          "type": "uint256"
        }
      ],
      "stateMutability": "view",
      "type": "function"
    },
    {
      "inputs": [],
      "name": "DrawWinnerTicket",
      "outputs": [],
      "stateMutability": "nonpayable",
      "type": "function"
    },
    {
      "inputs": [],
      "name": "IsWinner",
      "outputs": [
        {
          "internalType": "bool",
          "name": "",
          "type": "bool"
        }
      ],
      "stateMutability": "view",
      "type": "function"
    },
    {
      "inputs": [],
      "name": "RefundAll",
      "outputs": [],
      "stateMutability": "nonpayable",
      "type": "function"
    },
    {
      "inputs": [],
      "name": "RemainingTickets",
      "outputs": [
        {
          "internalType": "uint256",
          "name": "",
          "type": "uint256"
        }
      ],
      "stateMutability": "view",
      "type": "function"
    },
    {
      "inputs": [],
      "name": "WithdrawCommission",
      "outputs": [],
      "stateMutability": "nonpayable",
      "type": "function"
    },
    {
      "inputs": [],
      "name": "WithdrawWinnings",
      "outputs": [],
      "stateMutability": "nonpayable",
      "type": "function"
    },
    {
      "inputs": [],
      "name": "checkWinningsAmount",
      "outputs": [
        {
          "internalType": "uint256",
          "name": "",
          "type": "uint256"
        }
      ],
      "stateMutability": "view",
      "type": "function"
    },
    {
      "inputs": [],
      "name": "duration",
      "outputs": [
        {
          "internalType": "uint256",
          "name": "",
          "type": "uint256"
        }
      ],
      "stateMutability": "view",
      "type": "function"
    },
    {
      "inputs": [],
      "name": "expiration",
      "outputs": [
        {
          "internalType": "uint256",
          "name": "",
          "type": "uint256"
        }
      ],
      "stateMutability": "view",
      "type": "function"
    },
    {
      "inputs": [],
      "name": "getTickets",
      "outputs": [
        {
          "internalType": "address[]",
          "name": "",
          "type": "address[]"
        }
      ],
      "stateMutability": "view",
      "type": "function"
    },
    {
      "inputs": [
        {
          "internalType": "address",
          "name": "addr",
          "type": "address"
        }
      ],
      "name": "getWinningsForAddress",
      "outputs": [
        {
          "internalType": "uint256",
          "name": "",
          "type": "uint256"
        }
      ],
      "stateMutability": "view",
      "type": "function"
    },
    {
      "inputs": [],
      "name": "lastWinner",
      "outputs": [
        {
          "internalType": "address",
          "name": "",
          "type": "address"
        }
      ],
      "stateMutability": "view",
      "type": "function"
    },
    {
      "inputs": [],
      "name": "lastWinnerAmount",
      "outputs": [
        {
          "internalType": "uint256",
          "name": "",
          "type": "uint256"
        }
      ],
      "stateMutability": "view",
      "type": "function"
    },
    {
      "inputs": [],
      "name": "lotteryOperator",
      "outputs": [
        {
          "internalType": "address",
          "name": "",
          "type": "address"
        }
      ],
      "stateMutability": "view",
      "type": "function"
    },
    {
      "inputs": [],
      "name": "maxTickets",
      "outputs": [
        {
          "internalType": "uint256",
          "name": "",
          "type": "uint256"
        }
      ],
      "stateMutability": "view",
      "type": "function"
    },
    {
      "inputs": [],
      "name": "operatorTotalCommission",
      "outputs": [
        {
          "internalType": "uint256",
          "name": "",
          "type": "uint256"
        }
      ],
      "stateMutability": "view",
      "type": "function"
    },
    {
      "inputs": [],
      "name": "restartDraw",
      "outputs": [],
      "stateMutability": "nonpayable",
      "type": "function"
    },
    {
      "inputs": [],
      "name": "ticketCommission",
      "outputs": [
        {
          "internalType": "uint256",
          "name": "",
          "type": "uint256"
        }
      ],
      "stateMutability": "view",
      "type": "function"
    },
    {
      "inputs": [],
      "name": "ticketPrice",
      "outputs": [
        {
          "internalType": "uint256",
          "name": "",
          "type": "uint256"
        }
      ],
      "stateMutability": "view",
      "type": "function"
    },
    {
      "inputs": [
        {
          "internalType": "uint256",
          "name": "",
          "type": "uint256"
        }
      ],
      "name": "tickets",
      "outputs": [
        {
          "internalType": "address",
          "name": "",
          "type": "address"
        }
      ],
      "stateMutability": "view",
      "type": "function"
    },
    {
      "inputs": [
        {
          "internalType": "address",
          "name": "",
          "type": "address"
        }
      ],
      "name": "winnings",
      "outputs": [
        {
          "internalType": "uint256",
          "name": "",
          "type": "uint256"
        }
      ],
      "stateMutability": "view",
      "type": "function"
    }
  ],
  "devdoc": {
    "kind": "dev",
    "methods": {},
    "version": 1
  },
  "evm": {
    "assembly": "    /* \"Lottery.sol\":127:4751  contract Lottery {... */\n  mstore(0x40, 0x80)\n    /* \"Lottery.sol\":655:656  0 */\n  0x00\n    /* \"Lottery.sol\":614:656  uint256 public operatorTotalCommission = 0 */\n  0x02\n  sstore\n    /* \"Lottery.sol\":1380:1491  constructor() {... */\n  callvalue\n  dup1\n  iszero\n  tag_1\n  jumpi\n  0x00\n  dup1\n  revert\ntag_1:\n  pop\n    /* \"Lottery.sol\":1405:1420  lotteryOperator */\n  0x01\n    /* \"Lottery.sol\":1405:1433  lotteryOperator = msg.sender */\n  dup1\n  sload\n  not(sub(shl(0xa0, 0x01), 0x01))\n  and\n    /* \"Lottery.sol\":1423:1433  msg.sender */\n  caller\n    /* \"Lottery.sol\":1405:1433  lotteryOperator = msg.sender */\n  or\n  swap1\n  sstore\n    /* \"Lottery.sol\":1457:1483  block.timestamp + duration */\n  tag_4\n    /* \"Lottery.sol\":404:414  30 minutes */\n  0x0708\n    /* \"Lottery.sol\":1457:1472  block.timestamp */\n  timestamp\n    /* \"Lottery.sol\":1457:1483  block.timestamp + duration */\n  tag_5\n  jump\t// in\ntag_4:\n    /* \"Lottery.sol\":1444:1454  expiration */\n  0x00\n    /* \"Lottery.sol\":1444:1483  expiration = block.timestamp + duration */\n  sstore\n    /* \"Lottery.sol\":127:4751  contract Lottery {... */\n  jump(tag_7)\n    /* \"#utility.yul\":14:236   */\ntag_5:\n    /* \"#utility.yul\":79:88   */\n  dup1\n  dup3\n  add\n    /* \"#utility.yul\":100:110   */\n  dup1\n  dup3\n  gt\n    /* \"#utility.yul\":97:230   */\n  iszero\n  tag_9\n  jumpi\n    /* \"#utility.yul\":152:162   */\n  0x4e487b71\n    /* \"#utility.yul\":147:150   */\n  0xe0\n    /* \"#utility.yul\":143:163   */\n  shl\n    /* \"#utility.yul\":140:141   */\n  0x00\n    /* \"#utility.yul\":133:164   */\n  mstore\n    /* \"#utility.yul\":187:191   */\n  0x11\n    /* \"#utility.yul\":184:185   */\n  0x04\n    /* \"#utility.yul\":177:192   */\n  mstore\n    /* \"#utility.yul\":215:219   */\n  0x24\n    /* \"#utility.yul\":212:213   */\n  0x00\n    /* \"#utility.yul\":205:220   */\n  revert\n    /* \"#utility.yul\":97:230   */\ntag_9:\n    /* \"#utility.yul\":14:236   */\n  swap3\n  swap2\n  pop\n  pop\n  jump\t// out\ntag_7:\n    /* \"Lottery.sol\":127:4751  contract Lottery {... */\n  dataSize(sub_0)\n  dup1\n  dataOffset(sub_0)\n  0x00\n  codecopy\n  0x00\n  return\nstop\n\nsub_0: assembly {\n        /* \"Lottery.sol\":127:4751  contract Lottery {... */\n      mstore(0x40, 0x80)\n      jumpi(tag_1, lt(calldatasize, 0x04))\n      shr(0xe0, calldataload(0x00))\n      dup1\n      0x71827b7b\n      gt\n      tag_25\n      jumpi\n      dup1\n      0xba946d79\n      gt\n      tag_26\n      jumpi\n      dup1\n      0xea3a1499\n      gt\n      tag_27\n      jumpi\n      dup1\n      0xea3a1499\n      eq\n      tag_22\n      jumpi\n      dup1\n      0xf2613269\n      eq\n      tag_23\n      jumpi\n      dup1\n      0xfe188184\n      eq\n      tag_24\n      jumpi\n      0x00\n      dup1\n      revert\n    tag_27:\n      dup1\n      0xba946d79\n      eq\n      tag_19\n      jumpi\n      dup1\n      0xc6944fa0\n      eq\n      tag_20\n      jumpi\n      dup1\n      0xdd64e534\n      eq\n      tag_21\n      jumpi\n      0x00\n      dup1\n      revert\n    tag_26:\n      dup1\n      0x96c85ef3\n      gt\n      tag_28\n      jumpi\n      dup1\n      0x96c85ef3\n      eq\n      tag_16\n      jumpi\n      dup1\n      0x9b894703\n      eq\n      tag_17\n      jumpi\n      dup1\n      0xa88f4672\n      eq\n      tag_18\n      jumpi\n      0x00\n      dup1\n      revert\n    tag_28:\n      dup1\n      0x71827b7b\n      eq\n      tag_13\n      jumpi\n      dup1\n      0x91d8b14e\n      eq\n      tag_14\n      jumpi\n      dup1\n      0x93a563b5\n      eq\n      tag_15\n      jumpi\n      0x00\n      dup1\n      revert\n    tag_25:\n      dup1\n      0x4665096d\n      gt\n      tag_29\n      jumpi\n      dup1\n      0x50b44712\n      gt\n      tag_30\n      jumpi\n      dup1\n      0x50b44712\n      eq\n      tag_10\n      jumpi\n      dup1\n      0x5a58acdd\n      eq\n      tag_11\n      jumpi\n      dup1\n      0x6032a4f9\n      eq\n      tag_12\n      jumpi\n      0x00\n      dup1\n      revert\n    tag_30:\n      dup1\n      0x4665096d\n      eq\n      tag_7\n      jumpi\n      dup1\n      0x4788af7c\n      eq\n      tag_8\n      jumpi\n      dup1\n      0x4ed02622\n      eq\n      tag_9\n      jumpi\n      0x00\n      dup1\n      revert\n    tag_29:\n      dup1\n      0x0fb5a6b4\n      gt\n      tag_31\n      jumpi\n      dup1\n      0x0fb5a6b4\n      eq\n      tag_4\n      jumpi\n      dup1\n      0x1209b1f6\n      eq\n      tag_5\n      jumpi\n      dup1\n      0x35580df2\n      eq\n      tag_6\n      jumpi\n      0x00\n      dup1\n      revert\n    tag_31:\n      dup1\n      0x06f7f3bf\n      eq\n      tag_2\n      jumpi\n      dup1\n      0x0789c607\n      eq\n      tag_3\n      jumpi\n    tag_1:\n      0x00\n      dup1\n      revert\n        /* \"Lottery.sol\":761:792  uint256 public lastWinnerAmount */\n    tag_2:\n      callvalue\n      dup1\n      iszero\n      tag_32\n      jumpi\n      0x00\n      dup1\n      revert\n    tag_32:\n      pop\n      tag_33\n      sload(0x04)\n      dup2\n      jump\n    tag_33:\n      mload(0x40)\n        /* \"#utility.yul\":160:185   */\n      swap1\n      dup2\n      mstore\n        /* \"#utility.yul\":148:150   */\n      0x20\n        /* \"#utility.yul\":133:151   */\n      add\n        /* \"Lottery.sol\":761:792  uint256 public lastWinnerAmount */\n    tag_35:\n      mload(0x40)\n      dup1\n      swap2\n      sub\n      swap1\n      return\n        /* \"Lottery.sol\":3314:3528  function checkWinningsAmount() public view returns (uint256) {... */\n    tag_3:\n      callvalue\n      dup1\n      iszero\n      tag_37\n      jumpi\n      0x00\n      dup1\n      revert\n    tag_37:\n      pop\n        /* \"Lottery.sol\":3419:3429  msg.sender */\n      caller\n        /* \"Lottery.sol\":3366:3373  uint256 */\n      0x00\n        /* \"Lottery.sol\":3469:3485  winnings[winner] */\n      swap1\n      dup2\n      mstore\n        /* \"Lottery.sol\":3469:3477  winnings */\n      0x05\n        /* \"Lottery.sol\":3469:3485  winnings[winner] */\n      0x20\n      mstore\n      0x40\n      swap1\n      keccak256\n      sload\n        /* \"Lottery.sol\":3314:3528  function checkWinningsAmount() public view returns (uint256) {... */\n      jump(tag_33)\n        /* \"Lottery.sol\":369:414  uint256 public constant duration = 30 minutes */\n    tag_4:\n      callvalue\n      dup1\n      iszero\n      tag_41\n      jumpi\n      0x00\n      dup1\n      revert\n    tag_41:\n      pop\n      tag_33\n        /* \"Lottery.sol\":404:414  30 minutes */\n      0x0708\n        /* \"Lottery.sol\":369:414  uint256 public constant duration = 30 minutes */\n      dup2\n      jump\n        /* \"Lottery.sol\":151:199  uint256 public constant ticketPrice = 0.01 ether */\n    tag_5:\n      callvalue\n      dup1\n      iszero\n      tag_45\n      jumpi\n      0x00\n      dup1\n      revert\n    tag_45:\n      pop\n      tag_33\n        /* \"Lottery.sol\":189:199  0.01 ether */\n      0x2386f26fc10000\n        /* \"Lottery.sol\":151:199  uint256 public constant ticketPrice = 0.01 ether */\n      dup2\n      jump\n        /* \"Lottery.sol\":4132:4400  function WithdrawCommission() public isOperator {... */\n    tag_6:\n      callvalue\n      dup1\n      iszero\n      tag_49\n      jumpi\n      0x00\n      dup1\n      revert\n    tag_49:\n      pop\n      tag_50\n      tag_51\n      jump\t// in\n    tag_50:\n      stop\n        /* \"Lottery.sol\":459:484  uint256 public expiration */\n    tag_7:\n      callvalue\n      dup1\n      iszero\n      tag_52\n      jumpi\n      0x00\n      dup1\n      revert\n    tag_52:\n      pop\n      tag_33\n      sload(0x00)\n      dup2\n      jump\n        /* \"Lottery.sol\":2353:3091  function DrawWinnerTicket() public isOperator {... */\n    tag_8:\n      callvalue\n      dup1\n      iszero\n      tag_56\n      jumpi\n      0x00\n      dup1\n      revert\n    tag_56:\n      pop\n      tag_50\n      tag_58\n      jump\t// in\n        /* \"Lottery.sol\":1530:1624  function getTickets() public view returns (address[] memory) {... */\n    tag_9:\n      callvalue\n      dup1\n      iszero\n      tag_59\n      jumpi\n      0x00\n      dup1\n      revert\n    tag_59:\n      pop\n      tag_60\n      tag_61\n      jump\t// in\n    tag_60:\n      mload(0x40)\n      tag_35\n      swap2\n      swap1\n      tag_63\n      jump\t// in\n        /* \"Lottery.sol\":930:954  address[] public tickets */\n    tag_10:\n      callvalue\n      dup1\n      iszero\n      tag_64\n      jumpi\n      0x00\n      dup1\n      revert\n    tag_64:\n      pop\n      tag_65\n      tag_66\n      calldatasize\n      0x04\n      tag_67\n      jump\t// in\n    tag_66:\n      tag_68\n      jump\t// in\n    tag_65:\n      mload(0x40)\n      sub(shl(0xa0, 0x01), 0x01)\n        /* \"#utility.yul\":1231:1286   */\n      swap1\n      swap2\n      and\n        /* \"#utility.yul\":1213:1287   */\n      dup2\n      mstore\n        /* \"#utility.yul\":1201:1203   */\n      0x20\n        /* \"#utility.yul\":1186:1204   */\n      add\n        /* \"Lottery.sol\":930:954  address[] public tickets */\n      tag_35\n        /* \"#utility.yul\":1067:1293   */\n      jump\n        /* \"Lottery.sol\":548:578  address public lotteryOperator */\n    tag_11:\n      callvalue\n      dup1\n      iszero\n      tag_71\n      jumpi\n      0x00\n      dup1\n      revert\n    tag_71:\n      pop\n      sload(0x01)\n      tag_65\n      swap1\n      sub(shl(0xa0, 0x01), 0x01)\n      and\n      dup2\n      jump\n        /* \"Lottery.sol\":284:338  uint256 public constant ticketCommission = 0.001 ether */\n    tag_12:\n      callvalue\n      dup1\n      iszero\n      tag_75\n      jumpi\n      0x00\n      dup1\n      revert\n    tag_75:\n      pop\n      tag_33\n        /* \"Lottery.sol\":327:338  0.001 ether */\n      0x038d7ea4c68000\n        /* \"Lottery.sol\":284:338  uint256 public constant ticketCommission = 0.001 ether */\n      dup2\n      jump\n        /* \"Lottery.sol\":3536:3774  function WithdrawWinnings() public isWinner {... */\n    tag_13:\n      callvalue\n      dup1\n      iszero\n      tag_79\n      jumpi\n      0x00\n      dup1\n      revert\n    tag_79:\n      pop\n      tag_50\n      tag_81\n      jump\t// in\n        /* \"Lottery.sol\":1755:2345  function BuyTickets() public payable {... */\n    tag_14:\n      tag_50\n      tag_83\n      jump\t// in\n        /* \"Lottery.sol\":4637:4748  function RemainingTickets() public view returns (uint256) {... */\n    tag_15:\n      callvalue\n      dup1\n      iszero\n      tag_84\n      jumpi\n      0x00\n      dup1\n      revert\n    tag_84:\n      pop\n      tag_33\n      tag_86\n      jump\t// in\n        /* \"Lottery.sol\":4408:4505  function IsWinner() public view returns (bool) {... */\n    tag_16:\n      callvalue\n      dup1\n      iszero\n      tag_88\n      jumpi\n      0x00\n      dup1\n      revert\n    tag_88:\n      pop\n        /* \"Lottery.sol\":4482:4492  msg.sender */\n      caller\n        /* \"Lottery.sol\":4449:4453  bool */\n      0x00\n        /* \"Lottery.sol\":4473:4493  winnings[msg.sender] */\n      swap1\n      dup2\n      mstore\n        /* \"Lottery.sol\":4473:4481  winnings */\n      0x05\n        /* \"Lottery.sol\":4473:4493  winnings[msg.sender] */\n      0x20\n      mstore\n      0x40\n      swap1\n      keccak256\n      sload\n        /* \"Lottery.sol\":4473:4497  winnings[msg.sender] > 0 */\n      iszero\n      iszero\n        /* \"Lottery.sol\":4408:4505  function IsWinner() public view returns (bool) {... */\n      mload(0x40)\n        /* \"#utility.yul\":1463:1477   */\n      swap1\n      iszero\n        /* \"#utility.yul\":1456:1478   */\n      iszero\n        /* \"#utility.yul\":1438:1479   */\n      dup2\n      mstore\n        /* \"#utility.yul\":1426:1428   */\n      0x20\n        /* \"#utility.yul\":1411:1429   */\n      add\n        /* \"Lottery.sol\":4408:4505  function IsWinner() public view returns (bool) {... */\n      tag_35\n        /* \"#utility.yul\":1298:1485   */\n      jump\n        /* \"Lottery.sol\":206:246  uint256 public constant maxTickets = 100 */\n    tag_17:\n      callvalue\n      dup1\n      iszero\n      tag_93\n      jumpi\n      0x00\n      dup1\n      revert\n    tag_93:\n      pop\n      tag_33\n        /* \"Lottery.sol\":243:246  100 */\n      0x64\n        /* \"Lottery.sol\":206:246  uint256 public constant maxTickets = 100 */\n      dup2\n      jump\n        /* \"Lottery.sol\":3782:4124  function RefundAll() public {... */\n    tag_18:\n      callvalue\n      dup1\n      iszero\n      tag_97\n      jumpi\n      0x00\n      dup1\n      revert\n    tag_97:\n      pop\n      tag_50\n      tag_99\n      jump\t// in\n        /* \"Lottery.sol\":614:656  uint256 public operatorTotalCommission = 0 */\n    tag_19:\n      callvalue\n      dup1\n      iszero\n      tag_100\n      jumpi\n      0x00\n      dup1\n      revert\n    tag_100:\n      pop\n      tag_33\n      sload(0x02)\n      dup2\n      jump\n        /* \"Lottery.sol\":4513:4629  function CurrentWinningReward() public view returns (uint256) {... */\n    tag_20:\n      callvalue\n      dup1\n      iszero\n      tag_104\n      jumpi\n      0x00\n      dup1\n      revert\n    tag_104:\n      pop\n      tag_33\n      tag_106\n      jump\t// in\n        /* \"Lottery.sol\":1632:1747  function getWinningsForAddress(address addr) public view returns (uint256) {... */\n    tag_21:\n      callvalue\n      dup1\n      iszero\n      tag_108\n      jumpi\n      0x00\n      dup1\n      revert\n    tag_108:\n      pop\n      tag_33\n      tag_110\n      calldatasize\n      0x04\n      tag_111\n      jump\t// in\n    tag_110:\n      sub(shl(0xa0, 0x01), 0x01)\n        /* \"Lottery.sol\":1725:1739  winnings[addr] */\n      and\n        /* \"Lottery.sol\":1698:1705  uint256 */\n      0x00\n        /* \"Lottery.sol\":1725:1739  winnings[addr] */\n      swap1\n      dup2\n      mstore\n        /* \"Lottery.sol\":1725:1733  winnings */\n      0x05\n        /* \"Lottery.sol\":1725:1739  winnings[addr] */\n      0x20\n      mstore\n      0x40\n      swap1\n      keccak256\n      sload\n      swap1\n        /* \"Lottery.sol\":1632:1747  function getWinningsForAddress(address addr) public view returns (uint256) {... */\n      jump\n        /* \"Lottery.sol\":842:885  mapping(address => uint256) public winnings */\n    tag_22:\n      callvalue\n      dup1\n      iszero\n      tag_114\n      jumpi\n      0x00\n      dup1\n      revert\n    tag_114:\n      pop\n      tag_33\n      tag_116\n      calldatasize\n      0x04\n      tag_111\n      jump\t// in\n    tag_116:\n      mstore(0x20, 0x05)\n      0x00\n      swap1\n      dup2\n      mstore\n      0x40\n      swap1\n      keccak256\n      sload\n      dup2\n      jump\n        /* \"Lottery.sol\":3099:3306  function restartDraw() public isOperator {... */\n    tag_23:\n      callvalue\n      dup1\n      iszero\n      tag_119\n      jumpi\n      0x00\n      dup1\n      revert\n    tag_119:\n      pop\n      tag_50\n      tag_121\n      jump\t// in\n        /* \"Lottery.sol\":695:720  address public lastWinner */\n    tag_24:\n      callvalue\n      dup1\n      iszero\n      tag_122\n      jumpi\n      0x00\n      dup1\n      revert\n    tag_122:\n      pop\n      sload(0x03)\n      tag_65\n      swap1\n      sub(shl(0xa0, 0x01), 0x01)\n      and\n      dup2\n      jump\n        /* \"Lottery.sol\":4132:4400  function WithdrawCommission() public isOperator {... */\n    tag_51:\n        /* \"Lottery.sol\":1122:1137  lotteryOperator */\n      and(sub(shl(0xa0, 0x01), 0x01), sload(0x01))\n        /* \"Lottery.sol\":1108:1118  msg.sender */\n      caller\n        /* \"Lottery.sol\":1108:1137  msg.sender == lotteryOperator */\n      eq\n        /* \"Lottery.sol\":1085:1200  require(... */\n      tag_128\n      jumpi\n      mload(0x40)\n      shl(0xe5, 0x461bcd)\n      dup2\n      mstore\n        /* \"#utility.yul\":2006:2008   */\n      0x20\n        /* \"Lottery.sol\":1085:1200  require(... */\n      0x04\n      dup3\n      add\n        /* \"#utility.yul\":1988:2009   */\n      mstore\n        /* \"#utility.yul\":2045:2047   */\n      0x22\n        /* \"#utility.yul\":2025:2043   */\n      0x24\n      dup3\n      add\n        /* \"#utility.yul\":2018:2048   */\n      mstore\n        /* \"#utility.yul\":2084:2118   */\n      0x43616c6c6572206973206e6f7420746865206c6f7474657279206f7065726174\n        /* \"#utility.yul\":2064:2082   */\n      0x44\n      dup3\n      add\n        /* \"#utility.yul\":2057:2119   */\n      mstore\n      shl(0xf1, 0x37b9)\n        /* \"#utility.yul\":2135:2153   */\n      0x64\n      dup3\n      add\n        /* \"#utility.yul\":2128:2160   */\n      mstore\n        /* \"#utility.yul\":2177:2196   */\n      0x84\n      add\n        /* \"Lottery.sol\":1085:1200  require(... */\n    tag_129:\n      mload(0x40)\n      dup1\n      swap2\n      sub\n      swap1\n      revert\n    tag_128:\n        /* \"Lottery.sol\":4280:4303  operatorTotalCommission */\n      0x02\n      dup1\n      sload\n        /* \"Lottery.sol\":4191:4215  address payable operator */\n      0x00\n        /* \"Lottery.sol\":4314:4341  operatorTotalCommission = 0 */\n      swap2\n      dup3\n      swap1\n      sstore\n        /* \"Lottery.sol\":4354:4392  operator.transfer(commission2Transfer) */\n      mload(0x40)\n        /* \"Lottery.sol\":4226:4236  msg.sender */\n      caller\n      swap3\n      dup4\n      swap2\n        /* \"Lottery.sol\":4354:4392  operator.transfer(commission2Transfer) */\n      dup4\n      iszero\n      0x08fc\n      mul\n      swap2\n        /* \"Lottery.sol\":4280:4303  operatorTotalCommission */\n      dup5\n      swap2\n        /* \"Lottery.sol\":4354:4392  operator.transfer(commission2Transfer) */\n      swap1\n      dup2\n        /* \"Lottery.sol\":4191:4215  address payable operator */\n      dup2\n        /* \"Lottery.sol\":4354:4392  operator.transfer(commission2Transfer) */\n      dup2\n        /* \"Lottery.sol\":4280:4303  operatorTotalCommission */\n      dup6\n        /* \"Lottery.sol\":4226:4236  msg.sender */\n      dup9\n        /* \"Lottery.sol\":4354:4392  operator.transfer(commission2Transfer) */\n      dup9\n      call\n      swap4\n      pop\n      pop\n      pop\n      pop\n      iszero\n      dup1\n      iszero\n      tag_133\n      jumpi\n      returndatasize\n      0x00\n      dup1\n      returndatacopy\n      revert(0x00, returndatasize)\n    tag_133:\n      pop\n        /* \"Lottery.sol\":4180:4400  {... */\n      pop\n      pop\n        /* \"Lottery.sol\":4132:4400  function WithdrawCommission() public isOperator {... */\n      jump\t// out\n        /* \"Lottery.sol\":2353:3091  function DrawWinnerTicket() public isOperator {... */\n    tag_58:\n        /* \"Lottery.sol\":1122:1137  lotteryOperator */\n      and(sub(shl(0xa0, 0x01), 0x01), sload(0x01))\n        /* \"Lottery.sol\":1108:1118  msg.sender */\n      caller\n        /* \"Lottery.sol\":1108:1137  msg.sender == lotteryOperator */\n      eq\n        /* \"Lottery.sol\":1085:1200  require(... */\n      tag_135\n      jumpi\n      mload(0x40)\n      shl(0xe5, 0x461bcd)\n      dup2\n      mstore\n        /* \"#utility.yul\":2006:2008   */\n      0x20\n        /* \"Lottery.sol\":1085:1200  require(... */\n      0x04\n      dup3\n      add\n        /* \"#utility.yul\":1988:2009   */\n      mstore\n        /* \"#utility.yul\":2045:2047   */\n      0x22\n        /* \"#utility.yul\":2025:2043   */\n      0x24\n      dup3\n      add\n        /* \"#utility.yul\":2018:2048   */\n      mstore\n        /* \"#utility.yul\":2084:2118   */\n      0x43616c6c6572206973206e6f7420746865206c6f7474657279206f7065726174\n        /* \"#utility.yul\":2064:2082   */\n      0x44\n      dup3\n      add\n        /* \"#utility.yul\":2057:2119   */\n      mstore\n      shl(0xf1, 0x37b9)\n        /* \"#utility.yul\":2135:2153   */\n      0x64\n      dup3\n      add\n        /* \"#utility.yul\":2128:2160   */\n      mstore\n        /* \"#utility.yul\":2177:2196   */\n      0x84\n      add\n        /* \"Lottery.sol\":1085:1200  require(... */\n      tag_129\n        /* \"#utility.yul\":1804:2202   */\n      jump\n        /* \"Lottery.sol\":1085:1200  require(... */\n    tag_135:\n        /* \"Lottery.sol\":2418:2425  tickets */\n      0x06\n        /* \"Lottery.sol\":2418:2432  tickets.length */\n      sload\n        /* \"Lottery.sol\":2410:2466  require(tickets.length > 0, \"No tickets were purchased\") */\n      tag_138\n      jumpi\n      mload(0x40)\n      shl(0xe5, 0x461bcd)\n      dup2\n      mstore\n        /* \"#utility.yul\":2409:2411   */\n      0x20\n        /* \"Lottery.sol\":2410:2466  require(tickets.length > 0, \"No tickets were purchased\") */\n      0x04\n      dup3\n      add\n        /* \"#utility.yul\":2391:2412   */\n      mstore\n        /* \"#utility.yul\":2448:2450   */\n      0x19\n        /* \"#utility.yul\":2428:2446   */\n      0x24\n      dup3\n      add\n        /* \"#utility.yul\":2421:2451   */\n      mstore\n        /* \"#utility.yul\":2487:2514   */\n      0x4e6f207469636b65747320776572652070757263686173656400000000000000\n        /* \"#utility.yul\":2467:2485   */\n      0x44\n      dup3\n      add\n        /* \"#utility.yul\":2460:2515   */\n      mstore\n        /* \"#utility.yul\":2532:2550   */\n      0x64\n      add\n        /* \"Lottery.sol\":2410:2466  require(tickets.length > 0, \"No tickets were purchased\") */\n      tag_129\n        /* \"#utility.yul\":2207:2556   */\n      jump\n        /* \"Lottery.sol\":2410:2466  require(tickets.length > 0, \"No tickets were purchased\") */\n    tag_138:\n        /* \"Lottery.sol\":2524:2531  tickets */\n      0x06\n        /* \"Lottery.sol\":2524:2538  tickets.length */\n      sload\n        /* \"Lottery.sol\":2479:2496  bytes32 blockHash */\n      0x00\n      swap1\n        /* \"Lottery.sol\":2509:2538  block.number - tickets.length */\n      tag_141\n      swap1\n        /* \"Lottery.sol\":2509:2521  block.number */\n      number\n        /* \"Lottery.sol\":2509:2538  block.number - tickets.length */\n      tag_142\n      jump\t// in\n    tag_141:\n        /* \"Lottery.sol\":2605:2649  abi.encodePacked(block.timestamp, blockHash) */\n      0x40\n      dup1\n      mload\n        /* \"Lottery.sol\":2622:2637  block.timestamp */\n      timestamp\n        /* \"Lottery.sol\":2605:2649  abi.encodePacked(block.timestamp, blockHash) */\n      0x20\n      dup3\n      add\n        /* \"#utility.yul\":2983:3002   */\n      mstore\n        /* \"Lottery.sol\":2499:2539  blockhash(block.number - tickets.length) */\n      swap2\n      blockhash\n        /* \"#utility.yul\":3018:3030   */\n      swap1\n      dup3\n      add\n        /* \"#utility.yul\":3011:3039   */\n      dup2\n      swap1\n      mstore\n        /* \"Lottery.sol\":2499:2539  blockhash(block.number - tickets.length) */\n      swap2\n      pop\n        /* \"Lottery.sol\":2550:2570  uint256 randomNumber */\n      0x00\n      swap1\n        /* \"#utility.yul\":3055:3067   */\n      0x60\n      add\n        /* \"Lottery.sol\":2605:2649  abi.encodePacked(block.timestamp, blockHash) */\n      0x40\n      dup1\n      mload\n      not(0x1f)\n      dup2\n      dup5\n      sub\n      add\n      dup2\n      mstore\n      swap2\n      swap1\n      mstore\n        /* \"Lottery.sol\":2595:2650  keccak256(abi.encodePacked(block.timestamp, blockHash)) */\n      dup1\n      mload\n        /* \"Lottery.sol\":2605:2649  abi.encodePacked(block.timestamp, blockHash) */\n      0x20\n        /* \"Lottery.sol\":2595:2650  keccak256(abi.encodePacked(block.timestamp, blockHash)) */\n      swap1\n      swap2\n      add\n      keccak256\n        /* \"Lottery.sol\":2711:2718  tickets */\n      0x06\n        /* \"Lottery.sol\":2711:2725  tickets.length */\n      sload\n        /* \"Lottery.sol\":2595:2650  keccak256(abi.encodePacked(block.timestamp, blockHash)) */\n      swap1\n      swap2\n      pop\n        /* \"Lottery.sol\":2573:2661  uint256(... */\n      0x00\n      swap1\n        /* \"Lottery.sol\":2696:2725  randomNumber % tickets.length */\n      tag_145\n      swap1\n        /* \"Lottery.sol\":2595:2650  keccak256(abi.encodePacked(block.timestamp, blockHash)) */\n      dup4\n        /* \"Lottery.sol\":2696:2725  randomNumber % tickets.length */\n      tag_146\n      jump\t// in\n    tag_145:\n        /* \"Lottery.sol\":2672:2725  uint256 winningTicket = randomNumber % tickets.length */\n      swap1\n      pop\n        /* \"Lottery.sol\":2738:2752  address winner */\n      0x00\n        /* \"Lottery.sol\":2755:2762  tickets */\n      0x06\n        /* \"Lottery.sol\":2763:2776  winningTicket */\n      dup3\n        /* \"Lottery.sol\":2755:2777  tickets[winningTicket] */\n      dup2\n      sload\n      dup2\n      lt\n      tag_148\n      jumpi\n      tag_148\n      tag_149\n      jump\t// in\n    tag_148:\n      0x00\n      swap2\n      dup3\n      mstore\n      0x20\n      swap1\n      swap2\n      keccak256\n      add\n      sload\n        /* \"Lottery.sol\":2788:2798  lastWinner */\n      0x03\n        /* \"Lottery.sol\":2788:2807  lastWinner = winner */\n      dup1\n      sload\n      not(0xffffffffffffffffffffffffffffffffffffffff)\n      and\n      sub(shl(0xa0, 0x01), 0x01)\n        /* \"Lottery.sol\":2755:2777  tickets[winningTicket] */\n      swap1\n      swap3\n      and\n        /* \"Lottery.sol\":2788:2807  lastWinner = winner */\n      swap2\n      dup3\n      or\n      swap1\n      sstore\n        /* \"Lottery.sol\":2755:2777  tickets[winningTicket] */\n      swap1\n      pop\n        /* \"Lottery.sol\":2857:2887  ticketPrice - ticketCommission */\n      tag_151\n        /* \"Lottery.sol\":327:338  0.001 ether */\n      0x038d7ea4c68000\n        /* \"Lottery.sol\":189:199  0.01 ether */\n      0x2386f26fc10000\n        /* \"Lottery.sol\":2857:2887  ticketPrice - ticketCommission */\n      tag_142\n      jump\t// in\n    tag_151:\n        /* \"Lottery.sol\":2839:2846  tickets */\n      0x06\n        /* \"Lottery.sol\":2839:2853  tickets.length */\n      sload\n        /* \"Lottery.sol\":2839:2888  tickets.length * (ticketPrice - ticketCommission) */\n      tag_152\n      swap2\n      swap1\n      tag_153\n      jump\t// in\n    tag_152:\n      sub(shl(0xa0, 0x01), 0x01)\n        /* \"Lottery.sol\":2818:2834  winnings[winner] */\n      dup3\n      and\n      0x00\n      swap1\n      dup2\n      mstore\n        /* \"Lottery.sol\":2818:2826  winnings */\n      0x05\n        /* \"Lottery.sol\":2818:2834  winnings[winner] */\n      0x20\n      mstore\n      0x40\n      dup2\n      keccak256\n        /* \"Lottery.sol\":2818:2889  winnings[winner] += (tickets.length * (ticketPrice - ticketCommission)) */\n      dup1\n      sload\n        /* \"Lottery.sol\":2818:2834  winnings[winner] */\n      swap1\n      swap2\n      swap1\n        /* \"Lottery.sol\":2818:2889  winnings[winner] += (tickets.length * (ticketPrice - ticketCommission)) */\n      tag_154\n      swap1\n      dup5\n      swap1\n      tag_155\n      jump\t// in\n    tag_154:\n      swap1\n      swap2\n      sstore\n      pop\n      pop\n      sub(shl(0xa0, 0x01), 0x01)\n        /* \"Lottery.sol\":2919:2935  winnings[winner] */\n      dup2\n      and\n      0x00\n      swap1\n      dup2\n      mstore\n        /* \"Lottery.sol\":2919:2927  winnings */\n      0x05\n        /* \"Lottery.sol\":2919:2935  winnings[winner] */\n      0x20\n      mstore\n      0x40\n      swap1\n      keccak256\n      sload\n        /* \"Lottery.sol\":2900:2916  lastWinnerAmount */\n      0x04\n        /* \"Lottery.sol\":2900:2935  lastWinnerAmount = winnings[winner] */\n      sstore\n        /* \"Lottery.sol\":2974:2981  tickets */\n      0x06\n        /* \"Lottery.sol\":2974:2988  tickets.length */\n      sload\n        /* \"Lottery.sol\":2974:3007  tickets.length * ticketCommission */\n      tag_156\n      swap1\n        /* \"Lottery.sol\":327:338  0.001 ether */\n      0x038d7ea4c68000\n      swap1\n        /* \"Lottery.sol\":2974:3007  tickets.length * ticketCommission */\n      tag_153\n      jump\t// in\n    tag_156:\n        /* \"Lottery.sol\":2946:2969  operatorTotalCommission */\n      0x02\n      0x00\n        /* \"Lottery.sol\":2946:3008  operatorTotalCommission += (tickets.length * ticketCommission) */\n      dup3\n      dup3\n      sload\n      tag_157\n      swap2\n      swap1\n      tag_155\n      jump\t// in\n    tag_157:\n      swap1\n      swap2\n      sstore\n      pop\n        /* \"Lottery.sol\":3019:3033  delete tickets */\n      tag_158\n      swap1\n      pop\n        /* \"Lottery.sol\":3026:3033  tickets */\n      0x06\n      0x00\n        /* \"Lottery.sol\":3019:3033  delete tickets */\n      tag_159\n      jump\t// in\n    tag_158:\n        /* \"Lottery.sol\":3057:3083  block.timestamp + duration */\n      tag_160\n        /* \"Lottery.sol\":404:414  30 minutes */\n      0x0708\n        /* \"Lottery.sol\":3057:3072  block.timestamp */\n      timestamp\n        /* \"Lottery.sol\":3057:3083  block.timestamp + duration */\n      tag_155\n      jump\t// in\n    tag_160:\n        /* \"Lottery.sol\":3044:3054  expiration */\n      0x00\n        /* \"Lottery.sol\":3044:3083  expiration = block.timestamp + duration */\n      sstore\n      pop\n      pop\n      pop\n      pop\n        /* \"Lottery.sol\":2353:3091  function DrawWinnerTicket() public isOperator {... */\n      jump\t// out\n        /* \"Lottery.sol\":1530:1624  function getTickets() public view returns (address[] memory) {... */\n    tag_61:\n        /* \"Lottery.sol\":1573:1589  address[] memory */\n      0x60\n        /* \"Lottery.sol\":1609:1616  tickets */\n      0x06\n        /* \"Lottery.sol\":1602:1616  return tickets */\n      dup1\n      sload\n      dup1\n      0x20\n      mul\n      0x20\n      add\n      mload(0x40)\n      swap1\n      dup2\n      add\n      0x40\n      mstore\n      dup1\n      swap3\n      swap2\n      swap1\n      dup2\n      dup2\n      mstore\n      0x20\n      add\n      dup3\n      dup1\n      sload\n      dup1\n      iszero\n      tag_162\n      jumpi\n      0x20\n      mul\n      dup3\n      add\n      swap2\n      swap1\n      0x00\n      mstore\n      keccak256(0x00, 0x20)\n      swap1\n    tag_163:\n      dup2\n      sload\n      sub(shl(0xa0, 0x01), 0x01)\n      and\n      dup2\n      mstore\n      0x01\n      swap1\n      swap2\n      add\n      swap1\n      0x20\n      add\n      dup1\n      dup4\n      gt\n      tag_163\n      jumpi\n    tag_162:\n      pop\n      pop\n      pop\n      pop\n      pop\n      swap1\n      pop\n        /* \"Lottery.sol\":1530:1624  function getTickets() public view returns (address[] memory) {... */\n      swap1\n      jump\t// out\n        /* \"Lottery.sol\":930:954  address[] public tickets */\n    tag_68:\n      0x06\n      dup2\n      dup2\n      sload\n      dup2\n      lt\n      tag_164\n      jumpi\n      0x00\n      dup1\n      revert\n    tag_164:\n      0x00\n      swap2\n      dup3\n      mstore\n      0x20\n      swap1\n      swap2\n      keccak256\n      add\n      sload\n      sub(shl(0xa0, 0x01), 0x01)\n      and\n      swap1\n      pop\n      dup2\n      jump\t// out\n        /* \"Lottery.sol\":3536:3774  function WithdrawWinnings() public isWinner {... */\n    tag_81:\n        /* \"Lottery.sol\":4482:4492  msg.sender */\n      caller\n        /* \"Lottery.sol\":4449:4453  bool */\n      0x00\n        /* \"Lottery.sol\":4473:4493  winnings[msg.sender] */\n      swap1\n      dup2\n      mstore\n        /* \"Lottery.sol\":4473:4481  winnings */\n      0x05\n        /* \"Lottery.sol\":4473:4493  winnings[msg.sender] */\n      0x20\n      mstore\n      0x40\n      swap1\n      keccak256\n      sload\n        /* \"Lottery.sol\":1307:1352  require(IsWinner(), \"Caller is not a winner\") */\n      tag_168\n      jumpi\n      mload(0x40)\n      shl(0xe5, 0x461bcd)\n      dup2\n      mstore\n        /* \"#utility.yul\":3964:3966   */\n      0x20\n        /* \"Lottery.sol\":1307:1352  require(IsWinner(), \"Caller is not a winner\") */\n      0x04\n      dup3\n      add\n        /* \"#utility.yul\":3946:3967   */\n      mstore\n        /* \"#utility.yul\":4003:4005   */\n      0x16\n        /* \"#utility.yul\":3983:4001   */\n      0x24\n      dup3\n      add\n        /* \"#utility.yul\":3976:4006   */\n      mstore\n        /* \"#utility.yul\":4042:4066   */\n      0x43616c6c6572206973206e6f7420612077696e6e657200000000000000000000\n        /* \"#utility.yul\":4022:4040   */\n      0x44\n      dup3\n      add\n        /* \"#utility.yul\":4015:4067   */\n      mstore\n        /* \"#utility.yul\":4084:4102   */\n      0x64\n      add\n        /* \"Lottery.sol\":1307:1352  require(IsWinner(), \"Caller is not a winner\") */\n      tag_129\n        /* \"#utility.yul\":3762:4108   */\n      jump\n        /* \"Lottery.sol\":1307:1352  require(IsWinner(), \"Caller is not a winner\") */\n    tag_168:\n        /* \"Lottery.sol\":3624:3634  msg.sender */\n      caller\n        /* \"Lottery.sol\":3591:3613  address payable winner */\n      0x00\n        /* \"Lottery.sol\":3674:3690  winnings[winner] */\n      dup2\n      dup2\n      mstore\n        /* \"Lottery.sol\":3674:3682  winnings */\n      0x05\n        /* \"Lottery.sol\":3674:3690  winnings[winner] */\n      0x20\n      mstore\n      0x40\n      dup1\n      dup3\n      keccak256\n      dup1\n      sload\n        /* \"Lottery.sol\":3701:3721  winnings[winner] = 0 */\n      swap1\n      dup4\n      swap1\n      sstore\n        /* \"Lottery.sol\":3734:3766  winner.transfer(reward2Transfer) */\n      swap1\n      mload\n        /* \"Lottery.sol\":3674:3690  winnings[winner] */\n      swap1\n      swap2\n        /* \"Lottery.sol\":3624:3634  msg.sender */\n      dup4\n      swap2\n        /* \"Lottery.sol\":3734:3766  winner.transfer(reward2Transfer) */\n      dup4\n      iszero\n      0x08fc\n      mul\n      swap2\n        /* \"Lottery.sol\":3674:3690  winnings[winner] */\n      dup5\n      swap2\n        /* \"Lottery.sol\":3734:3766  winner.transfer(reward2Transfer) */\n      swap1\n      dup2\n        /* \"Lottery.sol\":3591:3613  address payable winner */\n      dup2\n        /* \"Lottery.sol\":3734:3766  winner.transfer(reward2Transfer) */\n      dup2\n        /* \"Lottery.sol\":3674:3690  winnings[winner] */\n      dup6\n        /* \"Lottery.sol\":3624:3634  msg.sender */\n      dup9\n        /* \"Lottery.sol\":3734:3766  winner.transfer(reward2Transfer) */\n      dup9\n      call\n      swap4\n      pop\n      pop\n      pop\n      pop\n      iszero\n      dup1\n      iszero\n      tag_133\n      jumpi\n      returndatasize\n      0x00\n      dup1\n      returndatacopy\n      revert(0x00, returndatasize)\n        /* \"Lottery.sol\":1755:2345  function BuyTickets() public payable {... */\n    tag_83:\n        /* \"Lottery.sol\":1825:1848  msg.value % ticketPrice */\n      tag_175\n        /* \"Lottery.sol\":189:199  0.01 ether */\n      0x2386f26fc10000\n        /* \"Lottery.sol\":1825:1834  msg.value */\n      callvalue\n        /* \"Lottery.sol\":1825:1848  msg.value % ticketPrice */\n      tag_146\n      jump\t// in\n    tag_175:\n        /* \"Lottery.sol\":1825:1853  msg.value % ticketPrice == 0 */\n      iszero\n        /* \"Lottery.sol\":1951:1980  Strings.toString(ticketPrice) */\n      tag_176\n        /* \"Lottery.sol\":189:199  0.01 ether */\n      0x2386f26fc10000\n        /* \"Lottery.sol\":1951:1967  Strings.toString */\n      tag_177\n        /* \"Lottery.sol\":1951:1980  Strings.toString(ticketPrice) */\n      jump\t// in\n    tag_176:\n        /* \"Lottery.sol\":1868:2022  string.concat(... */\n      add(0x20, mload(0x40))\n      tag_178\n      swap2\n      swap1\n      tag_179\n      jump\t// in\n    tag_178:\n      mload(0x40)\n      0x20\n      dup2\n      dup4\n      sub\n      sub\n      dup2\n      mstore\n      swap1\n      0x40\n      mstore\n        /* \"Lottery.sol\":1803:2033  require(... */\n      swap1\n      tag_180\n      jumpi\n      mload(0x40)\n      shl(0xe5, 0x461bcd)\n      dup2\n      mstore\n      0x04\n      add\n      tag_129\n      swap2\n      swap1\n      tag_182\n      jump\t// in\n    tag_180:\n      pop\n        /* \"Lottery.sol\":2044:2069  uint256 numOfTicketsToBuy */\n      0x00\n        /* \"Lottery.sol\":2072:2095  msg.value / ticketPrice */\n      tag_183\n        /* \"Lottery.sol\":189:199  0.01 ether */\n      0x2386f26fc10000\n        /* \"Lottery.sol\":2072:2081  msg.value */\n      callvalue\n        /* \"Lottery.sol\":2072:2095  msg.value / ticketPrice */\n      tag_184\n      jump\t// in\n    tag_183:\n        /* \"Lottery.sol\":2044:2095  uint256 numOfTicketsToBuy = msg.value / ticketPrice */\n      swap1\n      pop\n        /* \"Lottery.sol\":2151:2169  RemainingTickets() */\n      tag_185\n        /* \"Lottery.sol\":2151:2167  RemainingTickets */\n      tag_86\n        /* \"Lottery.sol\":2151:2169  RemainingTickets() */\n      jump\t// in\n    tag_185:\n        /* \"Lottery.sol\":2130:2147  numOfTicketsToBuy */\n      dup2\n        /* \"Lottery.sol\":2130:2169  numOfTicketsToBuy <= RemainingTickets() */\n      gt\n      iszero\n        /* \"Lottery.sol\":2108:2226  require(... */\n      tag_186\n      jumpi\n      mload(0x40)\n      shl(0xe5, 0x461bcd)\n      dup2\n      mstore\n        /* \"#utility.yul\":5440:5442   */\n      0x20\n        /* \"Lottery.sol\":2108:2226  require(... */\n      0x04\n      dup3\n      add\n        /* \"#utility.yul\":5422:5443   */\n      mstore\n        /* \"#utility.yul\":5479:5481   */\n      0x1d\n        /* \"#utility.yul\":5459:5477   */\n      0x24\n      dup3\n      add\n        /* \"#utility.yul\":5452:5482   */\n      mstore\n        /* \"#utility.yul\":5518:5549   */\n      0x4e6f7420656e6f756768207469636b65747320617661696c61626c652e000000\n        /* \"#utility.yul\":5498:5516   */\n      0x44\n      dup3\n      add\n        /* \"#utility.yul\":5491:5550   */\n      mstore\n        /* \"#utility.yul\":5567:5585   */\n      0x64\n      add\n        /* \"Lottery.sol\":2108:2226  require(... */\n      tag_129\n        /* \"#utility.yul\":5238:5591   */\n      jump\n        /* \"Lottery.sol\":2108:2226  require(... */\n    tag_186:\n        /* \"Lottery.sol\":2244:2253  uint256 i */\n      0x00\n        /* \"Lottery.sol\":2239:2338  for (uint256 i = 0; i < numOfTicketsToBuy; i++) {... */\n    tag_189:\n        /* \"Lottery.sol\":2263:2280  numOfTicketsToBuy */\n      dup2\n        /* \"Lottery.sol\":2259:2260  i */\n      dup2\n        /* \"Lottery.sol\":2259:2280  i < numOfTicketsToBuy */\n      lt\n        /* \"Lottery.sol\":2239:2338  for (uint256 i = 0; i < numOfTicketsToBuy; i++) {... */\n      iszero\n      tag_190\n      jumpi\n        /* \"Lottery.sol\":2302:2309  tickets */\n      0x06\n        /* \"Lottery.sol\":2302:2326  tickets.push(msg.sender) */\n      dup1\n      sload\n      0x01\n      dup2\n      dup2\n      add\n      dup4\n      sstore\n      0x00\n      swap3\n      swap1\n      swap3\n      mstore\n      0xf652222313e28459528d920b65115c16c04f3efc82aaedc97be59f3f377c0d3f\n      add\n      dup1\n      sload\n      not(0xffffffffffffffffffffffffffffffffffffffff)\n      and\n        /* \"Lottery.sol\":2315:2325  msg.sender */\n      caller\n        /* \"Lottery.sol\":2302:2326  tickets.push(msg.sender) */\n      or\n      swap1\n      sstore\n        /* \"Lottery.sol\":2282:2285  i++ */\n      add\n        /* \"Lottery.sol\":2239:2338  for (uint256 i = 0; i < numOfTicketsToBuy; i++) {... */\n      jump(tag_189)\n    tag_190:\n      pop\n        /* \"Lottery.sol\":1792:2345  {... */\n      pop\n        /* \"Lottery.sol\":1755:2345  function BuyTickets() public payable {... */\n      jump\t// out\n        /* \"Lottery.sol\":4637:4748  function RemainingTickets() public view returns (uint256) {... */\n    tag_86:\n        /* \"Lottery.sol\":4726:4733  tickets */\n      0x06\n        /* \"Lottery.sol\":4726:4740  tickets.length */\n      sload\n        /* \"Lottery.sol\":4686:4693  uint256 */\n      0x00\n      swap1\n        /* \"Lottery.sol\":4713:4740  maxTickets - tickets.length */\n      tag_194\n      swap1\n        /* \"Lottery.sol\":243:246  100 */\n      0x64\n        /* \"Lottery.sol\":4713:4740  maxTickets - tickets.length */\n      tag_142\n      jump\t// in\n    tag_194:\n        /* \"Lottery.sol\":4706:4740  return maxTickets - tickets.length */\n      swap1\n      pop\n        /* \"Lottery.sol\":4637:4748  function RemainingTickets() public view returns (uint256) {... */\n      swap1\n      jump\t// out\n        /* \"Lottery.sol\":3782:4124  function RefundAll() public {... */\n    tag_99:\n        /* \"Lottery.sol\":3848:3858  expiration */\n      sload(0x00)\n        /* \"Lottery.sol\":3829:3844  block.timestamp */\n      timestamp\n        /* \"Lottery.sol\":3829:3858  block.timestamp >= expiration */\n      lt\n      iszero\n        /* \"Lottery.sol\":3821:3890  require(block.timestamp >= expiration, \"the lottery not expired yet\") */\n      tag_197\n      jumpi\n      mload(0x40)\n      shl(0xe5, 0x461bcd)\n      dup2\n      mstore\n        /* \"#utility.yul\":5798:5800   */\n      0x20\n        /* \"Lottery.sol\":3821:3890  require(block.timestamp >= expiration, \"the lottery not expired yet\") */\n      0x04\n      dup3\n      add\n        /* \"#utility.yul\":5780:5801   */\n      mstore\n        /* \"#utility.yul\":5837:5839   */\n      0x1b\n        /* \"#utility.yul\":5817:5835   */\n      0x24\n      dup3\n      add\n        /* \"#utility.yul\":5810:5840   */\n      mstore\n        /* \"#utility.yul\":5876:5905   */\n      0x746865206c6f7474657279206e6f742065787069726564207965740000000000\n        /* \"#utility.yul\":5856:5874   */\n      0x44\n      dup3\n      add\n        /* \"#utility.yul\":5849:5906   */\n      mstore\n        /* \"#utility.yul\":5923:5941   */\n      0x64\n      add\n        /* \"Lottery.sol\":3821:3890  require(block.timestamp >= expiration, \"the lottery not expired yet\") */\n      tag_129\n        /* \"#utility.yul\":5596:5947   */\n      jump\n        /* \"Lottery.sol\":3821:3890  require(block.timestamp >= expiration, \"the lottery not expired yet\") */\n    tag_197:\n        /* \"Lottery.sol\":3908:3917  uint256 i */\n      0x00\n        /* \"Lottery.sol\":3903:4092  for (uint256 i = 0; i < tickets.length; i++) {... */\n    tag_200:\n        /* \"Lottery.sol\":3927:3934  tickets */\n      0x06\n        /* \"Lottery.sol\":3927:3941  tickets.length */\n      sload\n        /* \"Lottery.sol\":3923:3941  i < tickets.length */\n      dup2\n      lt\n        /* \"Lottery.sol\":3903:4092  for (uint256 i = 0; i < tickets.length; i++) {... */\n      iszero\n      tag_201\n      jumpi\n        /* \"Lottery.sol\":3963:3981  address payable to */\n      0x00\n        /* \"Lottery.sol\":3992:3999  tickets */\n      0x06\n        /* \"Lottery.sol\":4000:4001  i */\n      dup3\n        /* \"Lottery.sol\":3992:4002  tickets[i] */\n      dup2\n      sload\n      dup2\n      lt\n      tag_204\n      jumpi\n      tag_204\n      tag_149\n      jump\t// in\n    tag_204:\n      0x00\n      swap2\n      dup3\n      mstore\n      0x20\n      dup3\n      keccak256\n      add\n      sload\n        /* \"Lottery.sol\":4018:4025  tickets */\n      0x06\n        /* \"Lottery.sol\":4018:4028  tickets[i] */\n      dup1\n      sload\n      sub(shl(0xa0, 0x01), 0x01)\n        /* \"Lottery.sol\":3992:4002  tickets[i] */\n      swap1\n      swap3\n      and\n      swap4\n      pop\n        /* \"Lottery.sol\":4018:4025  tickets */\n      swap1\n        /* \"Lottery.sol\":4026:4027  i */\n      dup5\n      swap1\n        /* \"Lottery.sol\":4018:4028  tickets[i] */\n      dup2\n      lt\n      tag_207\n      jumpi\n      tag_207\n      tag_149\n      jump\t// in\n    tag_207:\n      0x00\n      swap2\n      dup3\n      mstore\n      0x20\n      dup3\n      keccak256\n      add\n        /* \"Lottery.sol\":4018:4041  tickets[i] = address(0) */\n      dup1\n      sload\n      not(0xffffffffffffffffffffffffffffffffffffffff)\n      and\n      sub(shl(0xa0, 0x01), 0x01)\n      swap4\n      dup5\n      and\n      or\n      swap1\n      sstore\n        /* \"Lottery.sol\":4056:4080  to.transfer(ticketPrice) */\n      mload(0x40)\n        /* \"Lottery.sol\":4056:4067  to.transfer */\n      swap2\n      dup4\n      and\n      swap2\n        /* \"Lottery.sol\":189:199  0.01 ether */\n      0x2386f26fc10000\n      swap1\n        /* \"Lottery.sol\":4018:4028  tickets[i] */\n      dup3\n        /* \"Lottery.sol\":4056:4080  to.transfer(ticketPrice) */\n      dup2\n        /* \"Lottery.sol\":4018:4028  tickets[i] */\n      dup2\n        /* \"Lottery.sol\":4056:4080  to.transfer(ticketPrice) */\n      dup2\n        /* \"Lottery.sol\":189:199  0.01 ether */\n      dup6\n        /* \"Lottery.sol\":4056:4067  to.transfer */\n      dup9\n        /* \"Lottery.sol\":4018:4028  tickets[i] */\n      dup4\n        /* \"Lottery.sol\":4056:4080  to.transfer(ticketPrice) */\n      call\n      swap4\n      pop\n      pop\n      pop\n      pop\n      iszero\n      dup1\n      iszero\n      tag_210\n      jumpi\n      returndatasize\n      0x00\n      dup1\n      returndatacopy\n      revert(0x00, returndatasize)\n    tag_210:\n      pop\n      pop\n        /* \"Lottery.sol\":3943:3946  i++ */\n      0x01\n      add\n        /* \"Lottery.sol\":3903:4092  for (uint256 i = 0; i < tickets.length; i++) {... */\n      jump(tag_200)\n    tag_201:\n      pop\n        /* \"Lottery.sol\":4102:4116  delete tickets */\n      tag_211\n        /* \"Lottery.sol\":4109:4116  tickets */\n      0x06\n      0x00\n        /* \"Lottery.sol\":4102:4116  delete tickets */\n      tag_159\n      jump\t// in\n    tag_211:\n        /* \"Lottery.sol\":3782:4124  function RefundAll() public {... */\n      jump\t// out\n        /* \"Lottery.sol\":4513:4629  function CurrentWinningReward() public view returns (uint256) {... */\n    tag_106:\n        /* \"Lottery.sol\":4593:4600  tickets */\n      0x06\n        /* \"Lottery.sol\":4593:4607  tickets.length */\n      sload\n        /* \"Lottery.sol\":4566:4573  uint256 */\n      0x00\n      swap1\n        /* \"Lottery.sol\":4593:4621  tickets.length * ticketPrice */\n      tag_194\n      swap1\n        /* \"Lottery.sol\":189:199  0.01 ether */\n      0x2386f26fc10000\n      swap1\n        /* \"Lottery.sol\":4593:4621  tickets.length * ticketPrice */\n      tag_153\n      jump\t// in\n        /* \"Lottery.sol\":3099:3306  function restartDraw() public isOperator {... */\n    tag_121:\n        /* \"Lottery.sol\":1122:1137  lotteryOperator */\n      and(sub(shl(0xa0, 0x01), 0x01), sload(0x01))\n        /* \"Lottery.sol\":1108:1118  msg.sender */\n      caller\n        /* \"Lottery.sol\":1108:1137  msg.sender == lotteryOperator */\n      eq\n        /* \"Lottery.sol\":1085:1200  require(... */\n      tag_216\n      jumpi\n      mload(0x40)\n      shl(0xe5, 0x461bcd)\n      dup2\n      mstore\n        /* \"#utility.yul\":2006:2008   */\n      0x20\n        /* \"Lottery.sol\":1085:1200  require(... */\n      0x04\n      dup3\n      add\n        /* \"#utility.yul\":1988:2009   */\n      mstore\n        /* \"#utility.yul\":2045:2047   */\n      0x22\n        /* \"#utility.yul\":2025:2043   */\n      0x24\n      dup3\n      add\n        /* \"#utility.yul\":2018:2048   */\n      mstore\n        /* \"#utility.yul\":2084:2118   */\n      0x43616c6c6572206973206e6f7420746865206c6f7474657279206f7065726174\n        /* \"#utility.yul\":2064:2082   */\n      0x44\n      dup3\n      add\n        /* \"#utility.yul\":2057:2119   */\n      mstore\n      shl(0xf1, 0x37b9)\n        /* \"#utility.yul\":2135:2153   */\n      0x64\n      dup3\n      add\n        /* \"#utility.yul\":2128:2160   */\n      mstore\n        /* \"#utility.yul\":2177:2196   */\n      0x84\n      add\n        /* \"Lottery.sol\":1085:1200  require(... */\n      tag_129\n        /* \"#utility.yul\":1804:2202   */\n      jump\n        /* \"Lottery.sol\":1085:1200  require(... */\n    tag_216:\n        /* \"Lottery.sol\":3159:3166  tickets */\n      0x06\n        /* \"Lottery.sol\":3159:3173  tickets.length */\n      sload\n        /* \"Lottery.sol\":3159:3178  tickets.length == 0 */\n      iszero\n        /* \"Lottery.sol\":3151:3221  require(tickets.length == 0, \"Cannot Restart Draw as Draw is in play\") */\n      tag_219\n      jumpi\n      mload(0x40)\n      shl(0xe5, 0x461bcd)\n      dup2\n      mstore\n        /* \"#utility.yul\":6154:6156   */\n      0x20\n        /* \"Lottery.sol\":3151:3221  require(tickets.length == 0, \"Cannot Restart Draw as Draw is in play\") */\n      0x04\n      dup3\n      add\n        /* \"#utility.yul\":6136:6157   */\n      mstore\n        /* \"#utility.yul\":6193:6195   */\n      0x26\n        /* \"#utility.yul\":6173:6191   */\n      0x24\n      dup3\n      add\n        /* \"#utility.yul\":6166:6196   */\n      mstore\n        /* \"#utility.yul\":6232:6266   */\n      0x43616e6e6f742052657374617274204472617720617320447261772069732069\n        /* \"#utility.yul\":6212:6230   */\n      0x44\n      dup3\n      add\n        /* \"#utility.yul\":6205:6267   */\n      mstore\n        /* \"#utility.yul\":6303:6311   */\n      0x6e20706c61790000000000000000000000000000000000000000000000000000\n        /* \"#utility.yul\":6283:6301   */\n      0x64\n      dup3\n      add\n        /* \"#utility.yul\":6276:6312   */\n      mstore\n        /* \"#utility.yul\":6329:6348   */\n      0x84\n      add\n        /* \"Lottery.sol\":3151:3221  require(tickets.length == 0, \"Cannot Restart Draw as Draw is in play\") */\n      tag_129\n        /* \"#utility.yul\":5952:6354   */\n      jump\n        /* \"Lottery.sol\":3151:3221  require(tickets.length == 0, \"Cannot Restart Draw as Draw is in play\") */\n    tag_219:\n        /* \"Lottery.sol\":3234:3248  delete tickets */\n      tag_222\n        /* \"Lottery.sol\":3241:3248  tickets */\n      0x06\n      0x00\n        /* \"Lottery.sol\":3234:3248  delete tickets */\n      tag_159\n      jump\t// in\n    tag_222:\n        /* \"Lottery.sol\":3272:3298  block.timestamp + duration */\n      tag_223\n        /* \"Lottery.sol\":404:414  30 minutes */\n      0x0708\n        /* \"Lottery.sol\":3272:3287  block.timestamp */\n      timestamp\n        /* \"Lottery.sol\":3272:3298  block.timestamp + duration */\n      tag_155\n      jump\t// in\n    tag_223:\n        /* \"Lottery.sol\":3259:3269  expiration */\n      0x00\n        /* \"Lottery.sol\":3259:3298  expiration = block.timestamp + duration */\n      sstore\n        /* \"Lottery.sol\":3099:3306  function restartDraw() public isOperator {... */\n      jump\t// out\n        /* \"@openzeppelin/contracts/utils/Strings.sol\":637:1269   */\n    tag_177:\n        /* \"@openzeppelin/contracts/utils/Strings.sol\":693:706   */\n      0x60\n        /* \"@openzeppelin/contracts/utils/Strings.sol\":742:756   */\n      0x00\n        /* \"@openzeppelin/contracts/utils/Strings.sol\":759:776   */\n      tag_225\n        /* \"@openzeppelin/contracts/utils/Strings.sol\":770:775   */\n      dup4\n        /* \"@openzeppelin/contracts/utils/Strings.sol\":759:769   */\n      tag_226\n        /* \"@openzeppelin/contracts/utils/Strings.sol\":759:776   */\n      jump\t// in\n    tag_225:\n        /* \"@openzeppelin/contracts/utils/Strings.sol\":779:780   */\n      0x01\n        /* \"@openzeppelin/contracts/utils/Strings.sol\":759:780   */\n      add\n        /* \"@openzeppelin/contracts/utils/Strings.sol\":742:780   */\n      swap1\n      pop\n        /* \"@openzeppelin/contracts/utils/Strings.sol\":794:814   */\n      0x00\n        /* \"@openzeppelin/contracts/utils/Strings.sol\":828:834   */\n      dup2\n        /* \"@openzeppelin/contracts/utils/Strings.sol\":817:835   */\n      0xffffffffffffffff\n      dup2\n      gt\n      iszero\n      tag_228\n      jumpi\n      tag_228\n      tag_229\n      jump\t// in\n    tag_228:\n      mload(0x40)\n      swap1\n      dup1\n      dup3\n      mstore\n      dup1\n      0x1f\n      add\n      not(0x1f)\n      and\n      0x20\n      add\n      dup3\n      add\n      0x40\n      mstore\n      dup1\n      iszero\n      tag_230\n      jumpi\n      0x20\n      dup3\n      add\n      dup2\n      dup1\n      calldatasize\n      dup4\n      calldatacopy\n      add\n      swap1\n      pop\n    tag_230:\n      pop\n        /* \"@openzeppelin/contracts/utils/Strings.sol\":794:835   */\n      swap1\n      pop\n        /* \"@openzeppelin/contracts/utils/Strings.sol\":924:952   */\n      dup2\n      dup2\n      add\n        /* \"@openzeppelin/contracts/utils/Strings.sol\":940:942   */\n      0x20\n        /* \"@openzeppelin/contracts/utils/Strings.sol\":924:952   */\n      add\n        /* \"@openzeppelin/contracts/utils/Strings.sol\":979:1226   */\n    tag_231:\n      not(0x00)\n        /* \"@openzeppelin/contracts/utils/Strings.sol\":1010:1015   */\n      add\n        /* \"@openzeppelin/contracts/utils/Strings.sol\":1114:1124   */\n      0x3031323334353637383961626364656600000000000000000000000000000000\n        /* \"@openzeppelin/contracts/utils/Strings.sol\":1109:1111   */\n      0x0a\n        /* \"@openzeppelin/contracts/utils/Strings.sol\":1098:1112   */\n      dup7\n      mod\n        /* \"@openzeppelin/contracts/utils/Strings.sol\":1093:1125   */\n      byte\n        /* \"@openzeppelin/contracts/utils/Strings.sol\":1010:1015   */\n      dup2\n        /* \"@openzeppelin/contracts/utils/Strings.sol\":1080:1126   */\n      mstore8\n        /* \"@openzeppelin/contracts/utils/Strings.sol\":1170:1172   */\n      0x0a\n        /* \"@openzeppelin/contracts/utils/Strings.sol\":1161:1172   */\n      dup6\n      div\n      swap5\n      pop\n        /* \"@openzeppelin/contracts/utils/Strings.sol\":1190:1211   */\n      dup5\n        /* \"@openzeppelin/contracts/utils/Strings.sol\":979:1226   */\n      tag_231\n        /* \"@openzeppelin/contracts/utils/Strings.sol\":1190:1211   */\n      jumpi\n      pop\n        /* \"@openzeppelin/contracts/utils/Strings.sol\":1246:1252   */\n      swap4\n        /* \"@openzeppelin/contracts/utils/Strings.sol\":637:1269   */\n      swap3\n      pop\n      pop\n      pop\n      jump\t// out\n        /* \"@openzeppelin/contracts/utils/math/Math.sol\":25316:26232   */\n    tag_226:\n        /* \"@openzeppelin/contracts/utils/math/Math.sol\":25369:25376   */\n      0x00\n      dup1\n        /* \"@openzeppelin/contracts/utils/math/Math.sol\":25453:25461   */\n      0x184f03e93ff9f4daa797ed6e38ed64bf6a1f010000000000000000\n        /* \"@openzeppelin/contracts/utils/math/Math.sol\":25444:25461   */\n      dup4\n      lt\n        /* \"@openzeppelin/contracts/utils/math/Math.sol\":25440:25543   */\n      tag_238\n      jumpi\n        /* \"@openzeppelin/contracts/utils/math/Math.sol\":25490:25498   */\n      0x184f03e93ff9f4daa797ed6e38ed64bf6a1f010000000000000000\n        /* \"@openzeppelin/contracts/utils/math/Math.sol\":25481:25498   */\n      dup4\n      div\n      swap3\n      pop\n        /* \"@openzeppelin/contracts/utils/math/Math.sol\":25526:25528   */\n      0x40\n        /* \"@openzeppelin/contracts/utils/math/Math.sol\":25516:25528   */\n      add\n        /* \"@openzeppelin/contracts/utils/math/Math.sol\":25440:25543   */\n    tag_238:\n        /* \"@openzeppelin/contracts/utils/math/Math.sol\":25569:25577   */\n      0x04ee2d6d415b85acef8100000000\n        /* \"@openzeppelin/contracts/utils/math/Math.sol\":25560:25565   */\n      dup4\n        /* \"@openzeppelin/contracts/utils/math/Math.sol\":25560:25577   */\n      lt\n        /* \"@openzeppelin/contracts/utils/math/Math.sol\":25556:25659   */\n      tag_241\n      jumpi\n        /* \"@openzeppelin/contracts/utils/math/Math.sol\":25606:25614   */\n      0x04ee2d6d415b85acef8100000000\n        /* \"@openzeppelin/contracts/utils/math/Math.sol\":25597:25614   */\n      dup4\n      div\n      swap3\n      pop\n        /* \"@openzeppelin/contracts/utils/math/Math.sol\":25642:25644   */\n      0x20\n        /* \"@openzeppelin/contracts/utils/math/Math.sol\":25632:25644   */\n      add\n        /* \"@openzeppelin/contracts/utils/math/Math.sol\":25556:25659   */\n    tag_241:\n        /* \"@openzeppelin/contracts/utils/math/Math.sol\":25685:25693   */\n      0x2386f26fc10000\n        /* \"@openzeppelin/contracts/utils/math/Math.sol\":25676:25681   */\n      dup4\n        /* \"@openzeppelin/contracts/utils/math/Math.sol\":25676:25693   */\n      lt\n        /* \"@openzeppelin/contracts/utils/math/Math.sol\":25672:25775   */\n      tag_244\n      jumpi\n        /* \"@openzeppelin/contracts/utils/math/Math.sol\":25722:25730   */\n      0x2386f26fc10000\n        /* \"@openzeppelin/contracts/utils/math/Math.sol\":25713:25730   */\n      dup4\n      div\n      swap3\n      pop\n        /* \"@openzeppelin/contracts/utils/math/Math.sol\":25758:25760   */\n      0x10\n        /* \"@openzeppelin/contracts/utils/math/Math.sol\":25748:25760   */\n      add\n        /* \"@openzeppelin/contracts/utils/math/Math.sol\":25672:25775   */\n    tag_244:\n        /* \"@openzeppelin/contracts/utils/math/Math.sol\":25801:25808   */\n      0x05f5e100\n        /* \"@openzeppelin/contracts/utils/math/Math.sol\":25792:25797   */\n      dup4\n        /* \"@openzeppelin/contracts/utils/math/Math.sol\":25792:25808   */\n      lt\n        /* \"@openzeppelin/contracts/utils/math/Math.sol\":25788:25888   */\n      tag_247\n      jumpi\n        /* \"@openzeppelin/contracts/utils/math/Math.sol\":25837:25844   */\n      0x05f5e100\n        /* \"@openzeppelin/contracts/utils/math/Math.sol\":25828:25844   */\n      dup4\n      div\n      swap3\n      pop\n        /* \"@openzeppelin/contracts/utils/math/Math.sol\":25872:25873   */\n      0x08\n        /* \"@openzeppelin/contracts/utils/math/Math.sol\":25862:25873   */\n      add\n        /* \"@openzeppelin/contracts/utils/math/Math.sol\":25788:25888   */\n    tag_247:\n        /* \"@openzeppelin/contracts/utils/math/Math.sol\":25914:25921   */\n      0x2710\n        /* \"@openzeppelin/contracts/utils/math/Math.sol\":25905:25910   */\n      dup4\n        /* \"@openzeppelin/contracts/utils/math/Math.sol\":25905:25921   */\n      lt\n        /* \"@openzeppelin/contracts/utils/math/Math.sol\":25901:26001   */\n      tag_250\n      jumpi\n        /* \"@openzeppelin/contracts/utils/math/Math.sol\":25950:25957   */\n      0x2710\n        /* \"@openzeppelin/contracts/utils/math/Math.sol\":25941:25957   */\n      dup4\n      div\n      swap3\n      pop\n        /* \"@openzeppelin/contracts/utils/math/Math.sol\":25985:25986   */\n      0x04\n        /* \"@openzeppelin/contracts/utils/math/Math.sol\":25975:25986   */\n      add\n        /* \"@openzeppelin/contracts/utils/math/Math.sol\":25901:26001   */\n    tag_250:\n        /* \"@openzeppelin/contracts/utils/math/Math.sol\":26027:26034   */\n      0x64\n        /* \"@openzeppelin/contracts/utils/math/Math.sol\":26018:26023   */\n      dup4\n        /* \"@openzeppelin/contracts/utils/math/Math.sol\":26018:26034   */\n      lt\n        /* \"@openzeppelin/contracts/utils/math/Math.sol\":26014:26114   */\n      tag_253\n      jumpi\n        /* \"@openzeppelin/contracts/utils/math/Math.sol\":26063:26070   */\n      0x64\n        /* \"@openzeppelin/contracts/utils/math/Math.sol\":26054:26070   */\n      dup4\n      div\n      swap3\n      pop\n        /* \"@openzeppelin/contracts/utils/math/Math.sol\":26098:26099   */\n      0x02\n        /* \"@openzeppelin/contracts/utils/math/Math.sol\":26088:26099   */\n      add\n        /* \"@openzeppelin/contracts/utils/math/Math.sol\":26014:26114   */\n    tag_253:\n        /* \"@openzeppelin/contracts/utils/math/Math.sol\":26140:26147   */\n      0x0a\n        /* \"@openzeppelin/contracts/utils/math/Math.sol\":26131:26136   */\n      dup4\n        /* \"@openzeppelin/contracts/utils/math/Math.sol\":26131:26147   */\n      lt\n        /* \"@openzeppelin/contracts/utils/math/Math.sol\":26127:26193   */\n      tag_256\n      jumpi\n        /* \"@openzeppelin/contracts/utils/math/Math.sol\":26177:26178   */\n      0x01\n        /* \"@openzeppelin/contracts/utils/math/Math.sol\":26167:26178   */\n      add\n        /* \"@openzeppelin/contracts/utils/math/Math.sol\":26127:26193   */\n    tag_256:\n        /* \"@openzeppelin/contracts/utils/math/Math.sol\":26219:26225   */\n      swap3\n        /* \"@openzeppelin/contracts/utils/math/Math.sol\":25316:26232   */\n      swap2\n      pop\n      pop\n      jump\t// out\n    tag_159:\n      pop\n      dup1\n      sload\n      0x00\n      dup3\n      sstore\n      swap1\n      0x00\n      mstore\n      keccak256(0x00, 0x20)\n      swap1\n      dup2\n      add\n      swap1\n      tag_258\n      swap2\n      swap1\n      tag_259\n      jump\t// in\n    tag_258:\n      pop\n      jump\t// out\n    tag_259:\n    tag_260:\n      dup1\n      dup3\n      gt\n      iszero\n      tag_261\n      jumpi\n      0x00\n      dup2\n      sstore\n      0x01\n      add\n      jump(tag_260)\n    tag_261:\n      pop\n      swap1\n      jump\t// out\n        /* \"#utility.yul\":196:877   */\n    tag_63:\n        /* \"#utility.yul\":367:369   */\n      0x20\n        /* \"#utility.yul\":419:440   */\n      dup1\n      dup3\n      mstore\n        /* \"#utility.yul\":489:502   */\n      dup3\n      mload\n        /* \"#utility.yul\":392:410   */\n      dup3\n      dup3\n      add\n        /* \"#utility.yul\":511:533   */\n      dup2\n      swap1\n      mstore\n        /* \"#utility.yul\":338:342   */\n      0x00\n      swap2\n        /* \"#utility.yul\":367:369   */\n      swap1\n        /* \"#utility.yul\":590:605   */\n      dup5\n      dup3\n      add\n      swap1\n        /* \"#utility.yul\":564:566   */\n      0x40\n        /* \"#utility.yul\":549:567   */\n      dup6\n      add\n      swap1\n        /* \"#utility.yul\":338:342   */\n      dup5\n        /* \"#utility.yul\":633:851   */\n    tag_266:\n        /* \"#utility.yul\":647:653   */\n      dup2\n        /* \"#utility.yul\":644:645   */\n      dup2\n        /* \"#utility.yul\":641:654   */\n      lt\n        /* \"#utility.yul\":633:851   */\n      iszero\n      tag_268\n      jumpi\n        /* \"#utility.yul\":712:725   */\n      dup4\n      mload\n      sub(shl(0xa0, 0x01), 0x01)\n        /* \"#utility.yul\":708:770   */\n      and\n        /* \"#utility.yul\":696:771   */\n      dup4\n      mstore\n        /* \"#utility.yul\":826:841   */\n      swap3\n      dup5\n      add\n      swap3\n        /* \"#utility.yul\":791:803   */\n      swap2\n      dup5\n      add\n      swap2\n        /* \"#utility.yul\":669:670   */\n      0x01\n        /* \"#utility.yul\":662:671   */\n      add\n        /* \"#utility.yul\":633:851   */\n      jump(tag_266)\n    tag_268:\n      pop\n        /* \"#utility.yul\":868:871   */\n      swap1\n      swap7\n        /* \"#utility.yul\":196:877   */\n      swap6\n      pop\n      pop\n      pop\n      pop\n      pop\n      pop\n      jump\t// out\n        /* \"#utility.yul\":882:1062   */\n    tag_67:\n        /* \"#utility.yul\":941:947   */\n      0x00\n        /* \"#utility.yul\":994:996   */\n      0x20\n        /* \"#utility.yul\":982:991   */\n      dup3\n        /* \"#utility.yul\":973:980   */\n      dup5\n        /* \"#utility.yul\":969:992   */\n      sub\n        /* \"#utility.yul\":965:997   */\n      slt\n        /* \"#utility.yul\":962:1014   */\n      iszero\n      tag_270\n      jumpi\n        /* \"#utility.yul\":1010:1011   */\n      0x00\n        /* \"#utility.yul\":1007:1008   */\n      dup1\n        /* \"#utility.yul\":1000:1012   */\n      revert\n        /* \"#utility.yul\":962:1014   */\n    tag_270:\n      pop\n        /* \"#utility.yul\":1033:1056   */\n      calldataload\n      swap2\n        /* \"#utility.yul\":882:1062   */\n      swap1\n      pop\n      jump\t// out\n        /* \"#utility.yul\":1490:1799   */\n    tag_111:\n        /* \"#utility.yul\":1549:1555   */\n      0x00\n        /* \"#utility.yul\":1602:1604   */\n      0x20\n        /* \"#utility.yul\":1590:1599   */\n      dup3\n        /* \"#utility.yul\":1581:1588   */\n      dup5\n        /* \"#utility.yul\":1577:1600   */\n      sub\n        /* \"#utility.yul\":1573:1605   */\n      slt\n        /* \"#utility.yul\":1570:1622   */\n      iszero\n      tag_274\n      jumpi\n        /* \"#utility.yul\":1618:1619   */\n      0x00\n        /* \"#utility.yul\":1615:1616   */\n      dup1\n        /* \"#utility.yul\":1608:1620   */\n      revert\n        /* \"#utility.yul\":1570:1622   */\n    tag_274:\n        /* \"#utility.yul\":1657:1666   */\n      dup2\n        /* \"#utility.yul\":1644:1667   */\n      calldataload\n      sub(shl(0xa0, 0x01), 0x01)\n        /* \"#utility.yul\":1700:1705   */\n      dup2\n        /* \"#utility.yul\":1696:1750   */\n      and\n        /* \"#utility.yul\":1689:1694   */\n      dup2\n        /* \"#utility.yul\":1686:1751   */\n      eq\n        /* \"#utility.yul\":1676:1769   */\n      tag_275\n      jumpi\n        /* \"#utility.yul\":1765:1766   */\n      0x00\n        /* \"#utility.yul\":1762:1763   */\n      dup1\n        /* \"#utility.yul\":1755:1767   */\n      revert\n        /* \"#utility.yul\":1676:1769   */\n    tag_275:\n        /* \"#utility.yul\":1788:1793   */\n      swap4\n        /* \"#utility.yul\":1490:1799   */\n      swap3\n      pop\n      pop\n      pop\n      jump\t// out\n        /* \"#utility.yul\":2561:2688   */\n    tag_262:\n        /* \"#utility.yul\":2622:2632   */\n      0x4e487b71\n        /* \"#utility.yul\":2617:2620   */\n      0xe0\n        /* \"#utility.yul\":2613:2633   */\n      shl\n        /* \"#utility.yul\":2610:2611   */\n      0x00\n        /* \"#utility.yul\":2603:2634   */\n      mstore\n        /* \"#utility.yul\":2653:2657   */\n      0x11\n        /* \"#utility.yul\":2650:2651   */\n      0x04\n        /* \"#utility.yul\":2643:2658   */\n      mstore\n        /* \"#utility.yul\":2677:2681   */\n      0x24\n        /* \"#utility.yul\":2674:2675   */\n      0x00\n        /* \"#utility.yul\":2667:2682   */\n      revert\n        /* \"#utility.yul\":2693:2821   */\n    tag_142:\n        /* \"#utility.yul\":2760:2769   */\n      dup2\n      dup2\n      sub\n        /* \"#utility.yul\":2781:2792   */\n      dup2\n      dup2\n      gt\n        /* \"#utility.yul\":2778:2815   */\n      iszero\n      tag_256\n      jumpi\n        /* \"#utility.yul\":2795:2813   */\n      tag_256\n      tag_262\n      jump\t// in\n        /* \"#utility.yul\":3078:3205   */\n    tag_235:\n        /* \"#utility.yul\":3139:3149   */\n      0x4e487b71\n        /* \"#utility.yul\":3134:3137   */\n      0xe0\n        /* \"#utility.yul\":3130:3150   */\n      shl\n        /* \"#utility.yul\":3127:3128   */\n      0x00\n        /* \"#utility.yul\":3120:3151   */\n      mstore\n        /* \"#utility.yul\":3170:3174   */\n      0x12\n        /* \"#utility.yul\":3167:3168   */\n      0x04\n        /* \"#utility.yul\":3160:3175   */\n      mstore\n        /* \"#utility.yul\":3194:3198   */\n      0x24\n        /* \"#utility.yul\":3191:3192   */\n      0x00\n        /* \"#utility.yul\":3184:3199   */\n      revert\n        /* \"#utility.yul\":3210:3322   */\n    tag_146:\n        /* \"#utility.yul\":3242:3243   */\n      0x00\n        /* \"#utility.yul\":3268:3269   */\n      dup3\n        /* \"#utility.yul\":3258:3293   */\n      tag_286\n      jumpi\n        /* \"#utility.yul\":3273:3291   */\n      tag_286\n      tag_235\n      jump\t// in\n    tag_286:\n      pop\n        /* \"#utility.yul\":3307:3316   */\n      mod\n      swap1\n        /* \"#utility.yul\":3210:3322   */\n      jump\t// out\n        /* \"#utility.yul\":3327:3454   */\n    tag_149:\n        /* \"#utility.yul\":3388:3398   */\n      0x4e487b71\n        /* \"#utility.yul\":3383:3386   */\n      0xe0\n        /* \"#utility.yul\":3379:3399   */\n      shl\n        /* \"#utility.yul\":3376:3377   */\n      0x00\n        /* \"#utility.yul\":3369:3400   */\n      mstore\n        /* \"#utility.yul\":3419:3423   */\n      0x32\n        /* \"#utility.yul\":3416:3417   */\n      0x04\n        /* \"#utility.yul\":3409:3424   */\n      mstore\n        /* \"#utility.yul\":3443:3447   */\n      0x24\n        /* \"#utility.yul\":3440:3441   */\n      0x00\n        /* \"#utility.yul\":3433:3448   */\n      revert\n        /* \"#utility.yul\":3459:3627   */\n    tag_153:\n        /* \"#utility.yul\":3532:3541   */\n      dup1\n      dup3\n      mul\n        /* \"#utility.yul\":3563:3572   */\n      dup2\n      iszero\n        /* \"#utility.yul\":3580:3595   */\n      dup3\n      dup3\n      div\n        /* \"#utility.yul\":3574:3596   */\n      dup5\n      eq\n        /* \"#utility.yul\":3560:3597   */\n      or\n        /* \"#utility.yul\":3550:3621   */\n      tag_256\n      jumpi\n        /* \"#utility.yul\":3601:3619   */\n      tag_256\n      tag_262\n      jump\t// in\n        /* \"#utility.yul\":3632:3757   */\n    tag_155:\n        /* \"#utility.yul\":3697:3706   */\n      dup1\n      dup3\n      add\n        /* \"#utility.yul\":3718:3728   */\n      dup1\n      dup3\n      gt\n        /* \"#utility.yul\":3715:3751   */\n      iszero\n      tag_256\n      jumpi\n        /* \"#utility.yul\":3731:3749   */\n      tag_256\n      tag_262\n      jump\t// in\n        /* \"#utility.yul\":4113:4685   */\n    tag_179:\n        /* \"#utility.yul\":4455:4487   */\n      0x7468652076616c7565206d757374206265206d756c7469706c65206f66200000\n        /* \"#utility.yul\":4450:4453   */\n      dup2\n        /* \"#utility.yul\":4443:4488   */\n      mstore\n        /* \"#utility.yul\":4425:4428   */\n      0x00\n        /* \"#utility.yul\":4517:4523   */\n      dup3\n        /* \"#utility.yul\":4511:4524   */\n      mload\n        /* \"#utility.yul\":4572:4578   */\n      dup1\n        /* \"#utility.yul\":4565:4569   */\n      0x20\n        /* \"#utility.yul\":4557:4563   */\n      dup6\n        /* \"#utility.yul\":4553:4570   */\n      add\n        /* \"#utility.yul\":4548:4550   */\n      0x1e\n        /* \"#utility.yul\":4543:4546   */\n      dup6\n        /* \"#utility.yul\":4539:4551   */\n      add\n        /* \"#utility.yul\":4533:4579   */\n      mcopy\n        /* \"#utility.yul\":4643:4651   */\n      0x2045746865720000000000000000000000000000000000000000000000000000\n        /* \"#utility.yul\":4638:4640   */\n      0x1e\n        /* \"#utility.yul\":4598:4614   */\n      swap4\n      swap1\n      swap2\n      add\n        /* \"#utility.yul\":4630:4641   */\n      swap3\n      dup4\n      add\n        /* \"#utility.yul\":4623:4652   */\n      mstore\n      pop\n        /* \"#utility.yul\":4676:4678   */\n      0x24\n        /* \"#utility.yul\":4668:4679   */\n      add\n      swap2\n        /* \"#utility.yul\":4113:4685   */\n      swap1\n      pop\n      jump\t// out\n        /* \"#utility.yul\":4690:5108   */\n    tag_182:\n        /* \"#utility.yul\":4839:4841   */\n      0x20\n        /* \"#utility.yul\":4828:4837   */\n      dup2\n        /* \"#utility.yul\":4821:4842   */\n      mstore\n        /* \"#utility.yul\":4802:4806   */\n      0x00\n        /* \"#utility.yul\":4871:4877   */\n      dup3\n        /* \"#utility.yul\":4865:4878   */\n      mload\n        /* \"#utility.yul\":4914:4920   */\n      dup1\n        /* \"#utility.yul\":4909:4911   */\n      0x20\n        /* \"#utility.yul\":4898:4907   */\n      dup5\n        /* \"#utility.yul\":4894:4912   */\n      add\n        /* \"#utility.yul\":4887:4921   */\n      mstore\n        /* \"#utility.yul\":4973:4979   */\n      dup1\n        /* \"#utility.yul\":4968:4970   */\n      0x20\n        /* \"#utility.yul\":4960:4966   */\n      dup6\n        /* \"#utility.yul\":4956:4971   */\n      add\n        /* \"#utility.yul\":4951:4953   */\n      0x40\n        /* \"#utility.yul\":4940:4949   */\n      dup6\n        /* \"#utility.yul\":4936:4954   */\n      add\n        /* \"#utility.yul\":4930:4980   */\n      mcopy\n        /* \"#utility.yul\":5029:5030   */\n      0x00\n        /* \"#utility.yul\":5024:5026   */\n      0x40\n        /* \"#utility.yul\":5015:5021   */\n      dup3\n        /* \"#utility.yul\":5004:5013   */\n      dup6\n        /* \"#utility.yul\":5000:5022   */\n      add\n        /* \"#utility.yul\":4996:5027   */\n      add\n        /* \"#utility.yul\":4989:5031   */\n      mstore\n        /* \"#utility.yul\":5099:5101   */\n      0x40\n        /* \"#utility.yul\":5092:5094   */\n      0x1f\n        /* \"#utility.yul\":5088:5095   */\n      not\n        /* \"#utility.yul\":5083:5085   */\n      0x1f\n        /* \"#utility.yul\":5075:5081   */\n      dup4\n        /* \"#utility.yul\":5071:5086   */\n      add\n        /* \"#utility.yul\":5067:5096   */\n      and\n        /* \"#utility.yul\":5056:5065   */\n      dup5\n        /* \"#utility.yul\":5052:5097   */\n      add\n        /* \"#utility.yul\":5048:5102   */\n      add\n        /* \"#utility.yul\":5040:5102   */\n      swap2\n      pop\n      pop\n        /* \"#utility.yul\":4690:5108   */\n      swap3\n      swap2\n      pop\n      pop\n      jump\t// out\n        /* \"#utility.yul\":5113:5233   */\n    tag_184:\n        /* \"#utility.yul\":5153:5154   */\n      0x00\n        /* \"#utility.yul\":5179:5180   */\n      dup3\n        /* \"#utility.yul\":5169:5204   */\n      tag_299\n      jumpi\n        /* \"#utility.yul\":5184:5202   */\n      tag_299\n      tag_235\n      jump\t// in\n    tag_299:\n      pop\n        /* \"#utility.yul\":5218:5227   */\n      div\n      swap1\n        /* \"#utility.yul\":5113:5233   */\n      jump\t// out\n        /* \"#utility.yul\":6359:6486   */\n    tag_229:\n        /* \"#utility.yul\":6420:6430   */\n      0x4e487b71\n        /* \"#utility.yul\":6415:6418   */\n      0xe0\n        /* \"#utility.yul\":6411:6431   */\n      shl\n        /* \"#utility.yul\":6408:6409   */\n      0x00\n        /* \"#utility.yul\":6401:6432   */\n      mstore\n        /* \"#utility.yul\":6451:6455   */\n      0x41\n        /* \"#utility.yul\":6448:6449   */\n      0x04\n        /* \"#utility.yul\":6441:6456   */\n      mstore\n        /* \"#utility.yul\":6475:6479   */\n      0x24\n        /* \"#utility.yul\":6472:6473   */\n      0x00\n        /* \"#utility.yul\":6465:6480   */\n      revert\n\n    auxdata: 0xa264697066735822122045bbcd2bf7b4cb5ced2c7d637c0e7eace63efafb37dbe22a557ac22866d21c3964736f6c63430008190033\n}\n",
    "bytecode": {
      "linkReferences": {},
      "object": "60806040525f6002553480156012575f80fd5b50600180546001600160a01b03191633179055602f610708426035565b5f556059565b80820180821115605357634e487b7160e01b5f52601160045260245ffd5b92915050565b610efb806100665f395ff3fe608060405260043610610178575f3560e01c806371827b7b116100d1578063ba946d791161007c578063ea3a149911610057578063ea3a1499146103a4578063f2613269146103cf578063fe188184146103e3575f80fd5b8063ba946d7914610347578063c6944fa01461035c578063dd64e53414610370575f80fd5b806396c85ef3116100ac57806396c85ef3146102f25780639b8947031461031f578063a88f467214610333575f80fd5b806371827b7b146102c257806391d8b14e146102d657806393a563b5146102de575f80fd5b80634665096d1161013157806350b447121161010c57806350b44712146102525780635a58acdd146102895780636032a4f9146102a8575f80fd5b80634665096d146102095780634788af7c1461021d5780634ed0262214610231575f80fd5b80630fb5a6b4116101615780630fb5a6b4146101c45780631209b1f6146101d957806335580df2146101f3575f80fd5b806306f7f3bf1461017c5780630789c607146101a4575b5f80fd5b348015610187575f80fd5b5061019160045481565b6040519081526020015b60405180910390f35b3480156101af575f80fd5b50335f90815260056020526040902054610191565b3480156101cf575f80fd5b5061019161070881565b3480156101e4575f80fd5b50610191662386f26fc1000081565b3480156101fe575f80fd5b50610207610402565b005b348015610214575f80fd5b506101915f5481565b348015610228575f80fd5b506102076104a6565b34801561023c575f80fd5b506102456106b0565b60405161019b9190610ce9565b34801561025d575f80fd5b5061027161026c366004610d35565b610710565b6040516001600160a01b03909116815260200161019b565b348015610294575f80fd5b50600154610271906001600160a01b031681565b3480156102b3575f80fd5b5061019166038d7ea4c6800081565b3480156102cd575f80fd5b50610207610738565b6102076107d3565b3480156102e9575f80fd5b50610191610901565b3480156102fd575f80fd5b50335f908152600560205260409020541515604051901515815260200161019b565b34801561032a575f80fd5b50610191606481565b34801561033e575f80fd5b50610207610916565b348015610352575f80fd5b5061019160025481565b348015610367575f80fd5b50610191610a27565b34801561037b575f80fd5b5061019161038a366004610d4c565b6001600160a01b03165f9081526005602052604090205490565b3480156103af575f80fd5b506101916103be366004610d4c565b60056020525f908152604090205481565b3480156103da575f80fd5b50610207610a3e565b3480156103ee575f80fd5b50600354610271906001600160a01b031681565b6001546001600160a01b0316331461046c5760405162461bcd60e51b815260206004820152602260248201527f43616c6c6572206973206e6f7420746865206c6f7474657279206f706572617460448201526137b960f11b60648201526084015b60405180910390fd5b600280545f918290556040513392839183156108fc0291849190818181858888f193505050501580156104a1573d5f803e3d5ffd5b505050565b6001546001600160a01b0316331461050b5760405162461bcd60e51b815260206004820152602260248201527f43616c6c6572206973206e6f7420746865206c6f7474657279206f706572617460448201526137b960f11b6064820152608401610463565b60065461055a5760405162461bcd60e51b815260206004820152601960248201527f4e6f207469636b657473207765726520707572636861736564000000000000006044820152606401610463565b6006545f906105699043610d8d565b60408051426020820152914090820181905291505f9060600160408051601f1981840301815291905280516020909101206006549091505f906105ac9083610db4565b90505f600682815481106105c2576105c2610dc7565b5f918252602090912001546003805473ffffffffffffffffffffffffffffffffffffffff19166001600160a01b039092169182179055905061061266038d7ea4c68000662386f26fc10000610d8d565b60065461061f9190610ddb565b6001600160a01b0382165f9081526005602052604081208054909190610646908490610df2565b90915550506001600160a01b0381165f9081526005602052604090205460045560065461067b9066038d7ea4c6800090610ddb565b60025f82825461068b9190610df2565b9091555061069c905060065f610cb3565b6106a861070842610df2565b5f5550505050565b6060600680548060200260200160405190810160405280929190818152602001828054801561070657602002820191905f5260205f20905b81546001600160a01b031681526001909101906020018083116106e8575b5050505050905090565b6006818154811061071f575f80fd5b5f918252602090912001546001600160a01b0316905081565b335f908152600560205260409020546107935760405162461bcd60e51b815260206004820152601660248201527f43616c6c6572206973206e6f7420612077696e6e6572000000000000000000006044820152606401610463565b335f8181526005602052604080822080549083905590519091839183156108fc0291849190818181858888f193505050501580156104a1573d5f803e3d5ffd5b6107e4662386f26fc1000034610db4565b156107f5662386f26fc10000610b34565b6040516020016108059190610e05565b604051602081830303815290604052906108325760405162461bcd60e51b81526004016104639190610e69565b505f610845662386f26fc1000034610e9e565b905061084f610901565b81111561089e5760405162461bcd60e51b815260206004820152601d60248201527f4e6f7420656e6f756768207469636b65747320617661696c61626c652e0000006044820152606401610463565b5f5b818110156108fd5760068054600181810183555f929092527ff652222313e28459528d920b65115c16c04f3efc82aaedc97be59f3f377c0d3f01805473ffffffffffffffffffffffffffffffffffffffff191633179055016108a0565b5050565b6006545f90610911906064610d8d565b905090565b5f544210156109675760405162461bcd60e51b815260206004820152601b60248201527f746865206c6f7474657279206e6f7420657870697265642079657400000000006044820152606401610463565b5f5b600654811015610a19575f6006828154811061098757610987610dc7565b5f918252602082200154600680546001600160a01b03909216935090849081106109b3576109b3610dc7565b5f9182526020822001805473ffffffffffffffffffffffffffffffffffffffff19166001600160a01b0393841617905560405191831691662386f26fc100009082818181858883f19350505050158015610a0f573d5f803e3d5ffd5b5050600101610969565b50610a2560065f610cb3565b565b6006545f9061091190662386f26fc1000090610ddb565b6001546001600160a01b03163314610aa35760405162461bcd60e51b815260206004820152602260248201527f43616c6c6572206973206e6f7420746865206c6f7474657279206f706572617460448201526137b960f11b6064820152608401610463565b60065415610b195760405162461bcd60e51b815260206004820152602660248201527f43616e6e6f74205265737461727420447261772061732044726177206973206960448201527f6e20706c617900000000000000000000000000000000000000000000000000006064820152608401610463565b610b2460065f610cb3565b610b3061070842610df2565b5f55565b60605f610b4083610bd1565b60010190505f8167ffffffffffffffff811115610b5f57610b5f610eb1565b6040519080825280601f01601f191660200182016040528015610b89576020820181803683370190505b5090508181016020015b5f19017f3031323334353637383961626364656600000000000000000000000000000000600a86061a8153600a8504945084610b9357509392505050565b5f807a184f03e93ff9f4daa797ed6e38ed64bf6a1f0100000000000000008310610c19577a184f03e93ff9f4daa797ed6e38ed64bf6a1f010000000000000000830492506040015b6d04ee2d6d415b85acef81000000008310610c45576d04ee2d6d415b85acef8100000000830492506020015b662386f26fc100008310610c6357662386f26fc10000830492506010015b6305f5e1008310610c7b576305f5e100830492506008015b6127108310610c8f57612710830492506004015b60648310610ca1576064830492506002015b600a8310610cad576001015b92915050565b5080545f8255905f5260205f2090810190610cce9190610cd1565b50565b5b80821115610ce5575f8155600101610cd2565b5090565b602080825282518282018190525f9190848201906040850190845b81811015610d295783516001600160a01b031683529284019291840191600101610d04565b50909695505050505050565b5f60208284031215610d45575f80fd5b5035919050565b5f60208284031215610d5c575f80fd5b81356001600160a01b0381168114610d72575f80fd5b9392505050565b634e487b7160e01b5f52601160045260245ffd5b81810381811115610cad57610cad610d79565b634e487b7160e01b5f52601260045260245ffd5b5f82610dc257610dc2610da0565b500690565b634e487b7160e01b5f52603260045260245ffd5b8082028115828204841417610cad57610cad610d79565b80820180821115610cad57610cad610d79565b7f7468652076616c7565206d757374206265206d756c7469706c65206f6620000081525f82518060208501601e85015e7f2045746865720000000000000000000000000000000000000000000000000000601e939091019283015250602401919050565b602081525f82518060208401528060208501604085015e5f604082850101526040601f19601f83011684010191505092915050565b5f82610eac57610eac610da0565b500490565b634e487b7160e01b5f52604160045260245ffdfea264697066735822122045bbcd2bf7b4cb5ced2c7d637c0e7eace63efafb37dbe22a557ac22866d21c3964736f6c63430008190033",
      "opcodes": "PUSH1 0x80 PUSH1 0x40 MSTORE PUSH0 PUSH1 0x2 SSTORE CALLVALUE DUP1 ISZERO PUSH1 0x12 JUMPI PUSH0 DUP1 REVERT JUMPDEST POP PUSH1 0x1 DUP1 SLOAD PUSH1 0x1 PUSH1 0x1 PUSH1 0xA0 SHL SUB NOT AND CALLER OR SWAP1 SSTORE PUSH1 0x2F PUSH2 0x708 TIMESTAMP PUSH1 0x35 JUMP JUMPDEST PUSH0 SSTORE PUSH1 0x59 JUMP JUMPDEST DUP1 DUP3 ADD DUP1 DUP3 GT ISZERO PUSH1 0x53 JUMPI PUSH4 0x4E487B71 PUSH1 0xE0 SHL PUSH0 MSTORE PUSH1 0x11 PUSH1 0x4 MSTORE PUSH1 0x24 PUSH0 REVERT JUMPDEST SWAP3 SWAP2 POP POP JUMP JUMPDEST PUSH2 0xEFB DUP1 PUSH2 0x66 PUSH0 CODECOPY PUSH0 RETURN INVALID PUSH1 0x80 PUSH1 0x40 MSTORE PUSH1 0x4 CALLDATASIZE LT PUSH2 0x178 JUMPI PUSH0 CALLDATALOAD PUSH1 0xE0 SHR DUP1 PUSH4 0x71827B7B GT PUSH2 0xD1 JUMPI DUP1 PUSH4 0xBA946D79 GT PUSH2 0x7C JUMPI DUP1 PUSH4 0xEA3A1499 GT PUSH2 0x57 JUMPI DUP1 PUSH4 0xEA3A1499 EQ PUSH2 0x3A4 JUMPI DUP1 PUSH4 0xF2613269 EQ PUSH2 0x3CF JUMPI DUP1 PUSH4 0xFE188184 EQ PUSH2 0x3E3 JUMPI PUSH0 DUP1 REVERT JUMPDEST DUP1 PUSH4 0xBA946D79 EQ PUSH2 0x347 JUMPI DUP1 PUSH4 0xC6944FA0 EQ PUSH2 0x35C JUMPI DUP1 PUSH4 0xDD64E534 EQ PUSH2 0x370 JUMPI PUSH0 DUP1 REVERT JUMPDEST DUP1 PUSH4 0x96C85EF3 GT PUSH2 0xAC JUMPI DUP1 PUSH4 0x96C85EF3 EQ PUSH2 0x2F2 JUMPI DUP1 PUSH4 0x9B894703 EQ PUSH2 0x31F JUMPI DUP1 PUSH4 0xA88F4672 EQ PUSH2 0x333 JUMPI PUSH0 DUP1 REVERT JUMPDEST DUP1 PUSH4 0x71827B7B EQ PUSH2 0x2C2 JUMPI DUP1 PUSH4 0x91D8B14E EQ PUSH2 0x2D6 JUMPI DUP1 PUSH4 0x93A563B5 EQ PUSH2 0x2DE JUMPI PUSH0 DUP1 REVERT JUMPDEST DUP1 PUSH4 0x4665096D GT PUSH2 0x131 JUMPI DUP1 PUSH4 0x50B44712 GT PUSH2 0x10C JUMPI DUP1 PUSH4 0x50B44712 EQ PUSH2 0x252 JUMPI DUP1 PUSH4 0x5A58ACDD EQ PUSH2 0x289 JUMPI DUP1 PUSH4 0x6032A4F9 EQ PUSH2 0x2A8 JUMPI PUSH0 DUP1 REVERT JUMPDEST DUP1 PUSH4 0x4665096D EQ PUSH2 0x209 JUMPI DUP1 PUSH4 0x4788AF7C EQ PUSH2 0x21D JUMPI DUP1 PUSH4 0x4ED02622 EQ PUSH2 0x231 JUMPI PUSH0 DUP1 REVERT JUMPDEST DUP1 PUSH4 0xFB5A6B4 GT PUSH2 0x161 JUMPI DUP1 PUSH4 0xFB5A6B4 EQ PUSH2 0x1C4 JUMPI DUP1 PUSH4 0x1209B1F6 EQ PUSH2 0x1D9 JUMPI DUP1 PUSH4 0x35580DF2 EQ PUSH2 0x1F3 JUMPI PUSH0 DUP1 REVERT JUMPDEST DUP1 PUSH4 0x6F7F3BF EQ PUSH2 0x17C JUMPI DUP1 PUSH4 0x789C607 EQ PUSH2 0x1A4 JUMPI JUMPDEST PUSH0 DUP1 REVERT JUMPDEST CALLVALUE DUP1 ISZERO PUSH2 0x187 JUMPI PUSH0 DUP1 REVERT JUMPDEST POP PUSH2 0x191 PUSH1 0x4 SLOAD DUP2 JUMP JUMPDEST PUSH1 0x40 MLOAD SWAP1 DUP2 MSTORE PUSH1 0x20 ADD JUMPDEST PUSH1 0x40 MLOAD DUP1 SWAP2 SUB SWAP1 RETURN JUMPDEST CALLVALUE DUP1 ISZERO PUSH2 0x1AF JUMPI PUSH0 DUP1 REVERT JUMPDEST POP CALLER PUSH0 SWAP1 DUP2 MSTORE PUSH1 0x5 PUSH1 0x20 MSTORE PUSH1 0x40 SWAP1 KECCAK256 SLOAD PUSH2 0x191 JUMP JUMPDEST CALLVALUE DUP1 ISZERO PUSH2 0x1CF JUMPI PUSH0 DUP1 REVERT JUMPDEST POP PUSH2 0x191 PUSH2 0x708 DUP2 JUMP JUMPDEST CALLVALUE DUP1 ISZERO PUSH2 0x1E4 JUMPI PUSH0 DUP1 REVERT JUMPDEST POP PUSH2 0x191 PUSH7 0x2386F26FC10000 DUP2 JUMP JUMPDEST CALLVALUE DUP1 ISZERO PUSH2 0x1FE JUMPI PUSH0 DUP1 REVERT JUMPDEST POP PUSH2 0x207 PUSH2 0x402 JUMP JUMPDEST STOP JUMPDEST CALLVALUE DUP1 ISZERO PUSH2 0x214 JUMPI PUSH0 DUP1 REVERT JUMPDEST POP PUSH2 0x191 PUSH0 SLOAD DUP2 JUMP JUMPDEST CALLVALUE DUP1 ISZERO PUSH2 0x228 JUMPI PUSH0 DUP1 REVERT JUMPDEST POP PUSH2 0x207 PUSH2 0x4A6 JUMP JUMPDEST CALLVALUE DUP1 ISZERO PUSH2 0x23C JUMPI PUSH0 DUP1 REVERT JUMPDEST POP PUSH2 0x245 PUSH2 0x6B0 JUMP JUMPDEST PUSH1 0x40 MLOAD PUSH2 0x19B SWAP2 SWAP1 PUSH2 0xCE9 JUMP JUMPDEST CALLVALUE DUP1 ISZERO PUSH2 0x25D JUMPI PUSH0 DUP1 REVERT JUMPDEST POP PUSH2 0x271 PUSH2 0x26C CALLDATASIZE PUSH1 0x4 PUSH2 0xD35 JUMP JUMPDEST PUSH2 0x710 JUMP JUMPDEST PUSH1 0x40 MLOAD PUSH1 0x1 PUSH1 0x1 PUSH1 0xA0 SHL SUB SWAP1 SWAP2 AND DUP2 MSTORE PUSH1 0x20 ADD PUSH2 0x19B JUMP JUMPDEST CALLVALUE DUP1 ISZERO PUSH2 0x294 JUMPI PUSH0 DUP1 REVERT JUMPDEST POP PUSH1 0x1 SLOAD PUSH2 0x271 SWAP1 PUSH1 0x1 PUSH1 0x1 PUSH1 0xA0 SHL SUB AND DUP2 JUMP JUMPDEST CALLVALUE DUP1 ISZERO PUSH2 0x2B3 JUMPI PUSH0 DUP1 REVERT JUMPDEST POP PUSH2 0x191 PUSH7 0x38D7EA4C68000 DUP2 JUMP JUMPDEST CALLVALUE DUP1 ISZERO PUSH2 0x2CD JUMPI PUSH0 DUP1 REVERT JUMPDEST POP PUSH2 0x207 PUSH2 0x738 JUMP JUMPDEST PUSH2 0x207 PUSH2 0x7D3 JUMP JUMPDEST CALLVALUE DUP1 ISZERO PUSH2 0x2E9 JUMPI PUSH0 DUP1 REVERT JUMPDEST POP PUSH2 0x191 PUSH2 0x901 JUMP JUMPDEST CALLVALUE DUP1 ISZERO PUSH2 0x2FD JUMPI PUSH0 DUP1 REVERT JUMPDEST POP CALLER PUSH0 SWAP1 DUP2 MSTORE PUSH1 0x5 PUSH1 0x20 MSTORE PUSH1 0x40 SWAP1 KECCAK256 SLOAD ISZERO ISZERO PUSH1 0x40 MLOAD SWAP1 ISZERO ISZERO DUP2 MSTORE PUSH1 0x20 ADD PUSH2 0x19B JUMP JUMPDEST CALLVALUE DUP1 ISZERO PUSH2 0x32A JUMPI PUSH0 DUP1 REVERT JUMPDEST POP PUSH2 0x191 PUSH1 0x64 DUP2 JUMP JUMPDEST CALLVALUE DUP1 ISZERO PUSH2 0x33E JUMPI PUSH0 DUP1 REVERT JUMPDEST POP PUSH2 0x207 PUSH2 0x916 JUMP JUMPDEST CALLVALUE DUP1 ISZERO PUSH2 0x352 JUMPI PUSH0 DUP1 REVERT JUMPDEST POP PUSH2 0x191 PUSH1 0x2 SLOAD DUP2 JUMP JUMPDEST CALLVALUE DUP1 ISZERO PUSH2 0x367 JUMPI PUSH0 DUP1 REVERT JUMPDEST POP PUSH2 0x191 PUSH2 0xA27 JUMP JUMPDEST CALLVALUE DUP1 ISZERO PUSH2 0x37B JUMPI PUSH0 DUP1 REVERT JUMPDEST POP PUSH2 0x191 PUSH2 0x38A CALLDATASIZE PUSH1 0x4 PUSH2 0xD4C JUMP JUMPDEST PUSH1 0x1 PUSH1 0x1 PUSH1 0xA0 SHL SUB AND PUSH0 SWAP1 DUP2 MSTORE PUSH1 0x5 PUSH1 0x20 MSTORE PUSH1 0x40 SWAP1 KECCAK256 SLOAD SWAP1 JUMP JUMPDEST CALLVALUE DUP1 ISZERO PUSH2 0x3AF JUMPI PUSH0 DUP1 REVERT JUMPDEST POP PUSH2 0x191 PUSH2 0x3BE CALLDATASIZE PUSH1 0x4 PUSH2 0xD4C JUMP JUMPDEST PUSH1 0x5 PUSH1 0x20 MSTORE PUSH0 SWAP1 DUP2 MSTORE PUSH1 0x40 SWAP1 KECCAK256 SLOAD DUP2 JUMP JUMPDEST CALLVALUE DUP1 ISZERO PUSH2 0x3DA JUMPI PUSH0 DUP1 REVERT JUMPDEST POP PUSH2 0x207 PUSH2 0xA3E JUMP JUMPDEST CALLVALUE DUP1 ISZERO PUSH2 0x3EE JUMPI PUSH0 DUP1 REVERT JUMPDEST POP PUSH1 0x3 SLOAD PUSH2 0x271 SWAP1 PUSH1 0x1 PUSH1 0x1 PUSH1 0xA0 SHL SUB AND DUP2 JUMP JUMPDEST PUSH1 0x1 SLOAD PUSH1 0x1 PUSH1 0x1 PUSH1 0xA0 SHL SUB AND CALLER EQ PUSH2 0x46C JUMPI PUSH1 0x40 MLOAD PUSH3 0x461BCD PUSH1 0xE5 SHL DUP2 MSTORE PUSH1 0x20 PUSH1 0x4 DUP3 ADD MSTORE PUSH1 0x22 PUSH1 0x24 DUP3 ADD MSTORE PUSH32 0x43616C6C6572206973206E6F7420746865206C6F7474657279206F7065726174 PUSH1 0x44 DUP3 ADD MSTORE PUSH2 0x37B9 PUSH1 0xF1 SHL PUSH1 0x64 DUP3 ADD MSTORE PUSH1 0x84 ADD JUMPDEST PUSH1 0x40 MLOAD DUP1 SWAP2 SUB SWAP1 REVERT JUMPDEST PUSH1 0x2 DUP1 SLOAD PUSH0 SWAP2 DUP3 SWAP1 SSTORE PUSH1 0x40 MLOAD CALLER SWAP3 DUP4 SWAP2 DUP4 ISZERO PUSH2 0x8FC MUL SWAP2 DUP5 SWAP2 SWAP1 DUP2 DUP2 DUP2 DUP6 DUP9 DUP9 CALL SWAP4 POP POP POP POP ISZERO DUP1 ISZERO PUSH2 0x4A1 JUMPI RETURNDATASIZE PUSH0 DUP1 RETURNDATACOPY RETURNDATASIZE PUSH0 REVERT JUMPDEST POP POP POP JUMP JUMPDEST PUSH1 0x1 SLOAD PUSH1 0x1 PUSH1 0x1 PUSH1 0xA0 SHL SUB AND CALLER EQ PUSH2 0x50B JUMPI PUSH1 0x40 MLOAD PUSH3 0x461BCD PUSH1 0xE5 SHL DUP2 MSTORE PUSH1 0x20 PUSH1 0x4 DUP3 ADD MSTORE PUSH1 0x22 PUSH1 0x24 DUP3 ADD MSTORE PUSH32 0x43616C6C6572206973206E6F7420746865206C6F7474657279206F7065726174 PUSH1 0x44 DUP3 ADD MSTORE PUSH2 0x37B9 PUSH1 0xF1 SHL PUSH1 0x64 DUP3 ADD MSTORE PUSH1 0x84 ADD PUSH2 0x463 JUMP JUMPDEST PUSH1 0x6 SLOAD PUSH2 0x55A JUMPI PUSH1 0x40 MLOAD PUSH3 0x461BCD PUSH1 0xE5 SHL DUP2 MSTORE PUSH1 0x20 PUSH1 0x4 DUP3 ADD MSTORE PUSH1 0x19 PUSH1 0x24 DUP3 ADD MSTORE PUSH32 0x4E6F207469636B65747320776572652070757263686173656400000000000000 PUSH1 0x44 DUP3 ADD MSTORE PUSH1 0x64 ADD PUSH2 0x463 JUMP JUMPDEST PUSH1 0x6 SLOAD PUSH0 SWAP1 PUSH2 0x569 SWAP1 NUMBER PUSH2 0xD8D JUMP JUMPDEST PUSH1 0x40 DUP1 MLOAD TIMESTAMP PUSH1 0x20 DUP3 ADD MSTORE SWAP2 BLOCKHASH SWAP1 DUP3 ADD DUP2 SWAP1 MSTORE SWAP2 POP PUSH0 SWAP1 PUSH1 0x60 ADD PUSH1 0x40 DUP1 MLOAD PUSH1 0x1F NOT DUP2 DUP5 SUB ADD DUP2 MSTORE SWAP2 SWAP1 MSTORE DUP1 MLOAD PUSH1 0x20 SWAP1 SWAP2 ADD KECCAK256 PUSH1 0x6 SLOAD SWAP1 SWAP2 POP PUSH0 SWAP1 PUSH2 0x5AC SWAP1 DUP4 PUSH2 0xDB4 JUMP JUMPDEST SWAP1 POP PUSH0 PUSH1 0x6 DUP3 DUP2 SLOAD DUP2 LT PUSH2 0x5C2 JUMPI PUSH2 0x5C2 PUSH2 0xDC7 JUMP JUMPDEST PUSH0 SWAP2 DUP3 MSTORE PUSH1 0x20 SWAP1 SWAP2 KECCAK256 ADD SLOAD PUSH1 0x3 DUP1 SLOAD PUSH20 0xFFFFFFFFFFFFFFFFFFFFFFFFFFFFFFFFFFFFFFFF NOT AND PUSH1 0x1 PUSH1 0x1 PUSH1 0xA0 SHL SUB SWAP1 SWAP3 AND SWAP2 DUP3 OR SWAP1 SSTORE SWAP1 POP PUSH2 0x612 PUSH7 0x38D7EA4C68000 PUSH7 0x2386F26FC10000 PUSH2 0xD8D JUMP JUMPDEST PUSH1 0x6 SLOAD PUSH2 0x61F SWAP2 SWAP1 PUSH2 0xDDB JUMP JUMPDEST PUSH1 0x1 PUSH1 0x1 PUSH1 0xA0 SHL SUB DUP3 AND PUSH0 SWAP1 DUP2 MSTORE PUSH1 0x5 PUSH1 0x20 MSTORE PUSH1 0x40 DUP2 KECCAK256 DUP1 SLOAD SWAP1 SWAP2 SWAP1 PUSH2 0x646 SWAP1 DUP5 SWAP1 PUSH2 0xDF2 JUMP JUMPDEST SWAP1 SWAP2 SSTORE POP POP PUSH1 0x1 PUSH1 0x1 PUSH1 0xA0 SHL SUB DUP2 AND PUSH0 SWAP1 DUP2 MSTORE PUSH1 0x5 PUSH1 0x20 MSTORE PUSH1 0x40 SWAP1 KECCAK256 SLOAD PUSH1 0x4 SSTORE PUSH1 0x6 SLOAD PUSH2 0x67B SWAP1 PUSH7 0x38D7EA4C68000 SWAP1 PUSH2 0xDDB JUMP JUMPDEST PUSH1 0x2 PUSH0 DUP3 DUP3 SLOAD PUSH2 0x68B SWAP2 SWAP1 PUSH2 0xDF2 JUMP JUMPDEST SWAP1 SWAP2 SSTORE POP PUSH2 0x69C SWAP1 POP PUSH1 0x6 PUSH0 PUSH2 0xCB3 JUMP JUMPDEST PUSH2 0x6A8 PUSH2 0x708 TIMESTAMP PUSH2 0xDF2 JUMP JUMPDEST PUSH0 SSTORE POP POP POP POP JUMP JUMPDEST PUSH1 0x60 PUSH1 0x6 DUP1 SLOAD DUP1 PUSH1 0x20 MUL PUSH1 0x20 ADD PUSH1 0x40 MLOAD SWAP1 DUP2 ADD PUSH1 0x40 MSTORE DUP1 SWAP3 SWAP2 SWAP1 DUP2 DUP2 MSTORE PUSH1 0x20 ADD DUP3 DUP1 SLOAD DUP1 ISZERO PUSH2 0x706 JUMPI PUSH1 0x20 MUL DUP3 ADD SWAP2 SWAP1 PUSH0 MSTORE PUSH1 0x20 PUSH0 KECCAK256 SWAP1 JUMPDEST DUP2 SLOAD PUSH1 0x1 PUSH1 0x1 PUSH1 0xA0 SHL SUB AND DUP2 MSTORE PUSH1 0x1 SWAP1 SWAP2 ADD SWAP1 PUSH1 0x20 ADD DUP1 DUP4 GT PUSH2 0x6E8 JUMPI JUMPDEST POP POP POP POP POP SWAP1 POP SWAP1 JUMP JUMPDEST PUSH1 0x6 DUP2 DUP2 SLOAD DUP2 LT PUSH2 0x71F JUMPI PUSH0 DUP1 REVERT JUMPDEST PUSH0 SWAP2 DUP3 MSTORE PUSH1 0x20 SWAP1 SWAP2 KECCAK256 ADD SLOAD PUSH1 0x1 PUSH1 0x1 PUSH1 0xA0 SHL SUB AND SWAP1 POP DUP2 JUMP JUMPDEST CALLER PUSH0 SWAP1 DUP2 MSTORE PUSH1 0x5 PUSH1 0x20 MSTORE PUSH1 0x40 SWAP1 KECCAK256 SLOAD PUSH2 0x793 JUMPI PUSH1 0x40 MLOAD PUSH3 0x461BCD PUSH1 0xE5 SHL DUP2 MSTORE PUSH1 0x20 PUSH1 0x4 DUP3 ADD MSTORE PUSH1 0x16 PUSH1 0x24 DUP3 ADD MSTORE PUSH32 0x43616C6C6572206973206E6F7420612077696E6E657200000000000000000000 PUSH1 0x44 DUP3 ADD MSTORE PUSH1 0x64 ADD PUSH2 0x463 JUMP JUMPDEST CALLER PUSH0 DUP2 DUP2 MSTORE PUSH1 0x5 PUSH1 0x20 MSTORE PUSH1 0x40 DUP1 DUP3 KECCAK256 DUP1 SLOAD SWAP1 DUP4 SWAP1 SSTORE SWAP1 MLOAD SWAP1 SWAP2 DUP4 SWAP2 DUP4 ISZERO PUSH2 0x8FC MUL SWAP2 DUP5 SWAP2 SWAP1 DUP2 DUP2 DUP2 DUP6 DUP9 DUP9 CALL SWAP4 POP POP POP POP ISZERO DUP1 ISZERO PUSH2 0x4A1 JUMPI RETURNDATASIZE PUSH0 DUP1 RETURNDATACOPY RETURNDATASIZE PUSH0 REVERT JUMPDEST PUSH2 0x7E4 PUSH7 0x2386F26FC10000 CALLVALUE PUSH2 0xDB4 JUMP JUMPDEST ISZERO PUSH2 0x7F5 PUSH7 0x2386F26FC10000 PUSH2 0xB34 JUMP JUMPDEST PUSH1 0x40 MLOAD PUSH1 0x20 ADD PUSH2 0x805 SWAP2 SWAP1 PUSH2 0xE05 JUMP JUMPDEST PUSH1 0x40 MLOAD PUSH1 0x20 DUP2 DUP4 SUB SUB DUP2 MSTORE SWAP1 PUSH1 0x40 MSTORE SWAP1 PUSH2 0x832 JUMPI PUSH1 0x40 MLOAD PUSH3 0x461BCD PUSH1 0xE5 SHL DUP2 MSTORE PUSH1 0x4 ADD PUSH2 0x463 SWAP2 SWAP1 PUSH2 0xE69 JUMP JUMPDEST POP PUSH0 PUSH2 0x845 PUSH7 0x2386F26FC10000 CALLVALUE PUSH2 0xE9E JUMP JUMPDEST SWAP1 POP PUSH2 0x84F PUSH2 0x901 JUMP JUMPDEST DUP2 GT ISZERO PUSH2 0x89E JUMPI PUSH1 0x40 MLOAD PUSH3 0x461BCD PUSH1 0xE5 SHL DUP2 MSTORE PUSH1 0x20 PUSH1 0x4 DUP3 ADD MSTORE PUSH1 0x1D PUSH1 0x24 DUP3 ADD MSTORE PUSH32 0x4E6F7420656E6F756768207469636B65747320617661696C61626C652E000000 PUSH1 0x44 DUP3 ADD MSTORE PUSH1 0x64 ADD PUSH2 0x463 JUMP JUMPDEST PUSH0 JUMPDEST DUP2 DUP2 LT ISZERO PUSH2 0x8FD JUMPI PUSH1 0x6 DUP1 SLOAD PUSH1 0x1 DUP2 DUP2 ADD DUP4 SSTORE PUSH0 SWAP3 SWAP1 SWAP3 MSTORE PUSH32 0xF652222313E28459528D920B65115C16C04F3EFC82AAEDC97BE59F3F377C0D3F ADD DUP1 SLOAD PUSH20 0xFFFFFFFFFFFFFFFFFFFFFFFFFFFFFFFFFFFFFFFF NOT AND CALLER OR SWAP1 SSTORE ADD PUSH2 0x8A0 JUMP JUMPDEST POP POP JUMP JUMPDEST PUSH1 0x6 SLOAD PUSH0 SWAP1 PUSH2 0x911 SWAP1 PUSH1 0x64 PUSH2 0xD8D JUMP JUMPDEST SWAP1 POP SWAP1 JUMP JUMPDEST PUSH0 SLOAD TIMESTAMP LT ISZERO PUSH2 0x967 JUMPI PUSH1 0x40 MLOAD PUSH3 0x461BCD PUSH1 0xE5 SHL DUP2 MSTORE PUSH1 0x20 PUSH1 0x4 DUP3 ADD MSTORE PUSH1 0x1B PUSH1 0x24 DUP3 ADD MSTORE PUSH32 0x746865206C6F7474657279206E6F742065787069726564207965740000000000 PUSH1 0x44 DUP3 ADD MSTORE PUSH1 0x64 ADD PUSH2 0x463 JUMP JUMPDEST PUSH0 JUMPDEST PUSH1 0x6 SLOAD DUP2 LT ISZERO PUSH2 0xA19 JUMPI PUSH0 PUSH1 0x6 DUP3 DUP2 SLOAD DUP2 LT PUSH2 0x987 JUMPI PUSH2 0x987 PUSH2 0xDC7 JUMP JUMPDEST PUSH0 SWAP2 DUP3 MSTORE PUSH1 0x20 DUP3 KECCAK256 ADD SLOAD PUSH1 0x6 DUP1 SLOAD PUSH1 0x1 PUSH1 0x1 PUSH1 0xA0 SHL SUB SWAP1 SWAP3 AND SWAP4 POP SWAP1 DUP5 SWAP1 DUP2 LT PUSH2 0x9B3 JUMPI PUSH2 0x9B3 PUSH2 0xDC7 JUMP JUMPDEST PUSH0 SWAP2 DUP3 MSTORE PUSH1 0x20 DUP3 KECCAK256 ADD DUP1 SLOAD PUSH20 0xFFFFFFFFFFFFFFFFFFFFFFFFFFFFFFFFFFFFFFFF NOT AND PUSH1 0x1 PUSH1 0x1 PUSH1 0xA0 SHL SUB SWAP4 DUP5 AND OR SWAP1 SSTORE PUSH1 0x40 MLOAD SWAP2 DUP4 AND SWAP2 PUSH7 0x2386F26FC10000 SWAP1 DUP3 DUP2 DUP2 DUP2 DUP6 DUP9 DUP4 CALL SWAP4 POP POP POP POP ISZERO DUP1 ISZERO PUSH2 0xA0F JUMPI RETURNDATASIZE PUSH0 DUP1 RETURNDATACOPY RETURNDATASIZE PUSH0 REVERT JUMPDEST POP POP PUSH1 0x1 ADD PUSH2 0x969 JUMP JUMPDEST POP PUSH2 0xA25 PUSH1 0x6 PUSH0 PUSH2 0xCB3 JUMP JUMPDEST JUMP JUMPDEST PUSH1 0x6 SLOAD PUSH0 SWAP1 PUSH2 0x911 SWAP1 PUSH7 0x2386F26FC10000 SWAP1 PUSH2 0xDDB JUMP JUMPDEST PUSH1 0x1 SLOAD PUSH1 0x1 PUSH1 0x1 PUSH1 0xA0 SHL SUB AND CALLER EQ PUSH2 0xAA3 JUMPI PUSH1 0x40 MLOAD PUSH3 0x461BCD PUSH1 0xE5 SHL DUP2 MSTORE PUSH1 0x20 PUSH1 0x4 DUP3 ADD MSTORE PUSH1 0x22 PUSH1 0x24 DUP3 ADD MSTORE PUSH32 0x43616C6C6572206973206E6F7420746865206C6F7474657279206F7065726174 PUSH1 0x44 DUP3 ADD MSTORE PUSH2 0x37B9 PUSH1 0xF1 SHL PUSH1 0x64 DUP3 ADD MSTORE PUSH1 0x84 ADD PUSH2 0x463 JUMP JUMPDEST PUSH1 0x6 SLOAD ISZERO PUSH2 0xB19 JUMPI PUSH1 0x40 MLOAD PUSH3 0x461BCD PUSH1 0xE5 SHL DUP2 MSTORE PUSH1 0x20 PUSH1 0x4 DUP3 ADD MSTORE PUSH1 0x26 PUSH1 0x24 DUP3 ADD MSTORE PUSH32 0x43616E6E6F742052657374617274204472617720617320447261772069732069 PUSH1 0x44 DUP3 ADD MSTORE PUSH32 0x6E20706C61790000000000000000000000000000000000000000000000000000 PUSH1 0x64 DUP3 ADD MSTORE PUSH1 0x84 ADD PUSH2 0x463 JUMP JUMPDEST PUSH2 0xB24 PUSH1 0x6 PUSH0 PUSH2 0xCB3 JUMP JUMPDEST PUSH2 0xB30 PUSH2 0x708 TIMESTAMP PUSH2 0xDF2 JUMP JUMPDEST PUSH0 SSTORE JUMP JUMPDEST PUSH1 0x60 PUSH0 PUSH2 0xB40 DUP4 PUSH2 0xBD1 JUMP JUMPDEST PUSH1 0x1 ADD SWAP1 POP PUSH0 DUP2 PUSH8 0xFFFFFFFFFFFFFFFF DUP2 GT ISZERO PUSH2 0xB5F JUMPI PUSH2 0xB5F PUSH2 0xEB1 JUMP JUMPDEST PUSH1 0x40 MLOAD SWAP1 DUP1 DUP3 MSTORE DUP1 PUSH1 0x1F ADD PUSH1 0x1F NOT AND PUSH1 0x20 ADD DUP3 ADD PUSH1 0x40 MSTORE DUP1 ISZERO PUSH2 0xB89 JUMPI PUSH1 0x20 DUP3 ADD DUP2 DUP1 CALLDATASIZE DUP4 CALLDATACOPY ADD SWAP1 POP JUMPDEST POP SWAP1 POP DUP2 DUP2 ADD PUSH1 0x20 ADD JUMPDEST PUSH0 NOT ADD PUSH32 0x3031323334353637383961626364656600000000000000000000000000000000 PUSH1 0xA DUP7 MOD BYTE DUP2 MSTORE8 PUSH1 0xA DUP6 DIV SWAP5 POP DUP5 PUSH2 0xB93 JUMPI POP SWAP4 SWAP3 POP POP POP JUMP JUMPDEST PUSH0 DUP1 PUSH27 0x184F03E93FF9F4DAA797ED6E38ED64BF6A1F010000000000000000 DUP4 LT PUSH2 0xC19 JUMPI PUSH27 0x184F03E93FF9F4DAA797ED6E38ED64BF6A1F010000000000000000 DUP4 DIV SWAP3 POP PUSH1 0x40 ADD JUMPDEST PUSH14 0x4EE2D6D415B85ACEF8100000000 DUP4 LT PUSH2 0xC45 JUMPI PUSH14 0x4EE2D6D415B85ACEF8100000000 DUP4 DIV SWAP3 POP PUSH1 0x20 ADD JUMPDEST PUSH7 0x2386F26FC10000 DUP4 LT PUSH2 0xC63 JUMPI PUSH7 0x2386F26FC10000 DUP4 DIV SWAP3 POP PUSH1 0x10 ADD JUMPDEST PUSH4 0x5F5E100 DUP4 LT PUSH2 0xC7B JUMPI PUSH4 0x5F5E100 DUP4 DIV SWAP3 POP PUSH1 0x8 ADD JUMPDEST PUSH2 0x2710 DUP4 LT PUSH2 0xC8F JUMPI PUSH2 0x2710 DUP4 DIV SWAP3 POP PUSH1 0x4 ADD JUMPDEST PUSH1 0x64 DUP4 LT PUSH2 0xCA1 JUMPI PUSH1 0x64 DUP4 DIV SWAP3 POP PUSH1 0x2 ADD JUMPDEST PUSH1 0xA DUP4 LT PUSH2 0xCAD JUMPI PUSH1 0x1 ADD JUMPDEST SWAP3 SWAP2 POP POP JUMP JUMPDEST POP DUP1 SLOAD PUSH0 DUP3 SSTORE SWAP1 PUSH0 MSTORE PUSH1 0x20 PUSH0 KECCAK256 SWAP1 DUP2 ADD SWAP1 PUSH2 0xCCE SWAP2 SWAP1 PUSH2 0xCD1 JUMP JUMPDEST POP JUMP JUMPDEST JUMPDEST DUP1 DUP3 GT ISZERO PUSH2 0xCE5 JUMPI PUSH0 DUP2 SSTORE PUSH1 0x1 ADD PUSH2 0xCD2 JUMP JUMPDEST POP SWAP1 JUMP JUMPDEST PUSH1 0x20 DUP1 DUP3 MSTORE DUP3 MLOAD DUP3 DUP3 ADD DUP2 SWAP1 MSTORE PUSH0 SWAP2 SWAP1 DUP5 DUP3 ADD SWAP1 PUSH1 0x40 DUP6 ADD SWAP1 DUP5 JUMPDEST DUP2 DUP2 LT ISZERO PUSH2 0xD29 JUMPI DUP4 MLOAD PUSH1 0x1 PUSH1 0x1 PUSH1 0xA0 SHL SUB AND DUP4 MSTORE SWAP3 DUP5 ADD SWAP3 SWAP2 DUP5 ADD SWAP2 PUSH1 0x1 ADD PUSH2 0xD04 JUMP JUMPDEST POP SWAP1 SWAP7 SWAP6 POP POP POP POP POP POP JUMP JUMPDEST PUSH0 PUSH1 0x20 DUP3 DUP5 SUB SLT ISZERO PUSH2 0xD45 JUMPI PUSH0 DUP1 REVERT JUMPDEST POP CALLDATALOAD SWAP2 SWAP1 POP JUMP JUMPDEST PUSH0 PUSH1 0x20 DUP3 DUP5 SUB SLT ISZERO PUSH2 0xD5C JUMPI PUSH0 DUP1 REVERT JUMPDEST DUP2 CALLDATALOAD PUSH1 0x1 PUSH1 0x1 PUSH1 0xA0 SHL SUB DUP2 AND DUP2 EQ PUSH2 0xD72 JUMPI PUSH0 DUP1 REVERT JUMPDEST SWAP4 SWAP3 POP POP POP JUMP JUMPDEST PUSH4 0x4E487B71 PUSH1 0xE0 SHL PUSH0 MSTORE PUSH1 0x11 PUSH1 0x4 MSTORE PUSH1 0x24 PUSH0 REVERT JUMPDEST DUP2 DUP2 SUB DUP2 DUP2 GT ISZERO PUSH2 0xCAD JUMPI PUSH2 0xCAD PUSH2 0xD79 JUMP JUMPDEST PUSH4 0x4E487B71 PUSH1 0xE0 SHL PUSH0 MSTORE PUSH1 0x12 PUSH1 0x4 MSTORE PUSH1 0x24 PUSH0 REVERT JUMPDEST PUSH0 DUP3 PUSH2 0xDC2 JUMPI PUSH2 0xDC2 PUSH2 0xDA0 JUMP JUMPDEST POP MOD SWAP1 JUMP JUMPDEST PUSH4 0x4E487B71 PUSH1 0xE0 SHL PUSH0 MSTORE PUSH1 0x32 PUSH1 0x4 MSTORE PUSH1 0x24 PUSH0 REVERT JUMPDEST DUP1 DUP3 MUL DUP2 ISZERO DUP3 DUP3 DIV DUP5 EQ OR PUSH2 0xCAD JUMPI PUSH2 0xCAD PUSH2 0xD79 JUMP JUMPDEST DUP1 DUP3 ADD DUP1 DUP3 GT ISZERO PUSH2 0xCAD JUMPI PUSH2 0xCAD PUSH2 0xD79 JUMP JUMPDEST PUSH32 0x7468652076616C7565206D757374206265206D756C7469706C65206F66200000 DUP2 MSTORE PUSH0 DUP3 MLOAD DUP1 PUSH1 0x20 DUP6 ADD PUSH1 0x1E DUP6 ADD MCOPY PUSH32 0x2045746865720000000000000000000000000000000000000000000000000000 PUSH1 0x1E SWAP4 SWAP1 SWAP2 ADD SWAP3 DUP4 ADD MSTORE POP PUSH1 0x24 ADD SWAP2 SWAP1 POP JUMP JUMPDEST PUSH1 0x20 DUP2 MSTORE PUSH0 DUP3 MLOAD DUP1 PUSH1 0x20 DUP5 ADD MSTORE DUP1 PUSH1 0x20 DUP6 ADD PUSH1 0x40 DUP6 ADD MCOPY PUSH0 PUSH1 0x40 DUP3 DUP6 ADD ADD MSTORE PUSH1 0x40 PUSH1 0x1F NOT PUSH1 0x1F DUP4 ADD AND DUP5 ADD ADD SWAP2 POP POP SWAP3 SWAP2 POP POP JUMP JUMPDEST PUSH0 DUP3 PUSH2 0xEAC JUMPI PUSH2 0xEAC PUSH2 0xDA0 JUMP JUMPDEST POP DIV SWAP1 JUMP JUMPDEST PUSH4 0x4E487B71 PUSH1 0xE0 SHL PUSH0 MSTORE PUSH1 0x41 PUSH1 0x4 MSTORE PUSH1 0x24 PUSH0 REVERT INVALID LOG2 PUSH5 0x6970667358 0x22 SLT KECCAK256 GASLIMIT 0xBB 0xCD 0x2B 0xF7 0xB4 0xCB TLOAD 0xED 0x2C PUSH30 0x637C0E7EACE63EFAFB37DBE22A557AC22866D21C3964736F6C6343000819 STOP CALLER "
    },
    "gasEstimates": {
      "creation": {
        "codeDepositCost": "767000",
        "executionCost": "52225",
        "totalCost": "819225"
      },
      "external": {
        "BuyTickets()": "infinite",
        "CurrentWinningReward()": "2466",
        "DrawWinnerTicket()": "infinite",
        "IsWinner()": "2403",
        "RefundAll()": "infinite",
        "RemainingTickets()": "2470",
        "WithdrawCommission()": "infinite",
        "WithdrawWinnings()": "infinite",
        "checkWinningsAmount()": "2416",
        "duration()": "229",
        "expiration()": "2328",
        "getTickets()": "infinite",
        "getWinningsForAddress(address)": "2577",
        "lastWinner()": "2424",
        "lastWinnerAmount()": "2330",
        "lotteryOperator()": "2403",
        "maxTickets()": "250",
        "operatorTotalCommission()": "2328",
        "restartDraw()": "infinite",
        "ticketCommission()": "272",
        "ticketPrice()": "251",
        "tickets(uint256)": "4656",
        "winnings(address)": "2514"
      }
    },
    "methodIdentifiers": {
      "BuyTickets()": "91d8b14e",
      "CurrentWinningReward()": "c6944fa0",
      "DrawWinnerTicket()": "4788af7c",
      "IsWinner()": "96c85ef3",
      "RefundAll()": "a88f4672",
      "RemainingTickets()": "93a563b5",
      "WithdrawCommission()": "35580df2",
      "WithdrawWinnings()": "71827b7b",
      "checkWinningsAmount()": "0789c607",
      "duration()": "0fb5a6b4",
      "expiration()": "4665096d",
      "getTickets()": "4ed02622",
      "getWinningsForAddress(address)": "dd64e534",
      "lastWinner()": "fe188184",
      "lastWinnerAmount()": "06f7f3bf",
      "lotteryOperator()": "5a58acdd",
      "maxTickets()": "9b894703",
      "operatorTotalCommission()": "ba946d79",
      "restartDraw()": "f2613269",
      "ticketCommission()": "6032a4f9",
      "ticketPrice()": "1209b1f6",
      "tickets(uint256)": "50b44712",
      "winnings(address)": "ea3a1499"
    }
  },
  "storageLayout": {
    "storage": [
      {
        "astId": 16,
        "contract": "Lottery.sol:Lottery",
        "label": "expiration",
        "offset": 0,
        "slot": "0",
        "type": "t_uint256"
      },
      {
        "astId": 18,
        "contract": "Lottery.sol:Lottery",
        "label": "lotteryOperator",
        "offset": 0,
        "slot": "1",
        "type": "t_address"
      },
      {
        "astId": 21,
        "contract": "Lottery.sol:Lottery",
        "label": "operatorTotalCommission",
        "offset": 0,
        "slot": "2",
        "type": "t_uint256"
      },
      {
        "astId": 23,
        "contract": "Lottery.sol:Lottery",
        "label": "lastWinner",
        "offset": 0,
        "slot": "3",
        "type": "t_address"
      },
      {
        "astId": 25,
        "contract": "Lottery.sol:Lottery",
        "label": "lastWinnerAmount",
        "offset": 0,
        "slot": "4",
        "type": "t_uint256"
      },
      {
        "astId": 29,
        "contract": "Lottery.sol:Lottery",
        "label": "winnings",
        "offset": 0,
        "slot": "5",
        "type": "t_mapping(t_address,t_uint256)"
      },
      {
        "astId": 32,
        "contract": "Lottery.sol:Lottery",
        "label": "tickets",
        "offset": 0,
        "slot": "6",
        "type": "t_array(t_address)dyn_storage"
      }
    ],
    "types": {
      "t_address": {
        "encoding": "inplace",
        "label": "address",
        "numberOfBytes": "20"
      },
      "t_array(t_address)dyn_storage": {
        "base": "t_address",
        "encoding": "dynamic_array",
        "label": "address[]",
        "numberOfBytes": "32"
      },
      "t_mapping(t_address,t_uint256)": {
        "encoding": "mapping",
        "key": "t_address",
        "label": "mapping(address => uint256)",
        "numberOfBytes": "32",
        "value": "t_uint256"
      },
      "t_uint256": {
        "encoding": "inplace",
        "label": "uint256",
        "numberOfBytes": "32"
      }
    }
  },
  "userdoc": {
    "kind": "user",
    "methods": {},
    "version": 1
  }
}